:020000040800F2
:1000000000000320B9480008094900080949000810
:1000100009490008094900080949000800000000D2
:100020000000000000000000000000000949000876
:10003000094900080000000009490008414800087B
:100040000949000809490008094900080949000848
:100050000949000809490008094900080949000838
:100060000949000809490008094900080949000828
:100070000949000809490008094900080949000818
:100080000949000809490008094900080949000808
:1000900009490008094900080949000809490008F8
:1000A00009490008094900080949000809490008E8
:1000B000094900084D480008094900080949000895
:1000C00009490008094900080949000809490008C8
:1000D0000949000809490008094900085D48000865
:1000E00009490008094900080949000809490008A8
:1000F0000949000809490008094900080949000898
:100100000949000809490008094900080949000887
:100110000949000809490008094900080949000877
:100120000949000809490008094900080949000867
:100130000949000809490008094900080949000857
:100140000949000809490008094900080949000847
:100150000949000809490008094900080949000837
:100160000949000809490008094900080949000827
:100170000949000809490008094900080000000071
:100180000949000809490008094900080949000807
:1001900009490008094900080949000809490008F7
:0C01A00009490008094900080949000845
:1001B00010B5054C237833B9044B13B10448AFF3A1
:1001C00000800123237010BDE0010020000000002A
:1001D0001880000808B5034B1BB103490348AFF36F
:1001E000008008BD00000000E40100201880000825
:1001F00081F0004102E000BF83F0004330B54FEAD8
:1002000041044FEA430594EA050F08BF90EA020F44
:100210001FBF54EA000C55EA020C7FEA645C7FEAD7
:10022000655C00F0E2804FEA5454D4EB5555B8BFFA
:100230006D420CDD2C4480EA020281EA030382EA6B
:10024000000083EA010180EA020281EA0303362DFD
:1002500088BF30BD11F0004F4FEA01314FF4801CD0
:100260004CEA113102D0404261EB410113F0004FE2
:100270004FEA03334CEA133302D0524263EB430399
:1002800094EA050F00F0A780A4F10104D5F1200E37
:100290000DDB02FA0EFC22FA05F2801841F1000192
:1002A00003FA0EF2801843FA05F359410EE0A5F166
:1002B00020050EF1200E012A03FA0EFC28BF4CF097
:1002C000020C43FA05F3C01851EBE37101F000454D
:1002D00007D54FF0000EDCF1000C7EEB00006EEB5A
:1002E0000101B1F5801F1BD3B1F5001F0CD34908E4
:1002F0005FEA30004FEA3C0C04F101044FEA44523B
:1003000012F5800F80F09A80BCF1004F08BF5FEAC1
:10031000500C50F1000041EB045141EA050130BDA1
:100320005FEA4C0C404141EB010111F4801FA4F144
:100330000104E9D191F0000F04BF01460020B1FA99
:1003400081F308BF2033A3F10B03B3F120020CDAD1
:100350000C3208DD02F1140CC2F10C0201FA0CF0AF
:1003600021FA02F10CE002F11402D8BFC2F1200C14
:1003700001FA02F120FA0CFCDCBF41EA0C019040CA
:10038000E41AA2BF01EB0451294330BD6FEA040413
:100390001F3C1CDA0C340EDC04F11404C4F12002FE
:1003A00020FA04F001FA02F340EA030021FA04F310
:1003B00045EA030130BDC4F10C04C4F1200220FA67
:1003C00002F001FA04F340EA0300294630BD21FAA5
:1003D00004F0294630BD94F0000F83F4801306BF6B
:1003E00081F480110134013D4EE77FEA645C18BF5F
:1003F0007FEA655C29D094EA050F08BF90EA020FF6
:1004000005D054EA000C04BF1946104630BD91EAED
:10041000030F1EBF0021002030BD5FEA545C05D1F0
:100420004000494128BF41F0004130BD14F580042F
:100430003CBF01F5801130BD01F0004545F0FE41A3
:1004400041F470014FF0000030BD7FEA645C1ABFD8
:10045000194610467FEA655C1CBF0B46024650EA0F
:10046000013406BF52EA033591EA030F41F400213B
:1004700030BD00BF90F0000F04BF0021704730B5C1
:100480004FF4806404F132044FF000054FF0000196
:1004900050E700BF90F0000F04BF0021704730B557
:1004A0004FF4806404F1320410F0004548BF40422C
:1004B0004FF000013EE700BF42004FEAE2014FEA81
:1004C00031014FEA02701FBF12F07F4393F07F4F5C
:1004D00081F06051704732F07F4208BF704793F05F
:1004E0007F4F04BF41F40021704730B54FF4607472
:1004F00001F0004521F000411CE700BF50EA010275
:1005000008BF704730B54FF000050AE050EA01021D
:1005100008BF704730B511F0004502D5404261EB8D
:1005200041014FF4806404F132045FEA915C3FF4CE
:10053000D8AE4FF003025FEADC0C18BF03325FEA6B
:10054000DC0C18BF033202EBDC02C2F1200300FA1C
:1005500003FC20FA02F001FA03FE40EA0E0021FA41
:1005600002F11444BDE600BF70B54FF0FF0C4CF42F
:10057000E06C1CEA11541DBF1CEA135594EA0C0FE1
:1005800095EA0C0F00F0DEF82C4481EA030621EA1C
:100590004C5123EA4C5350EA013518BF52EA033557
:1005A00041F4801143F4801338D0A0FB02CE4FF009
:1005B0000005E1FB02E506F00042E0FB03E54FF039
:1005C0000006E1FB03569CF0000F18BF4EF0010E31
:1005D000A4F1FF04B6F5007F64F5407404D25FEA2D
:1005E0004E0E6D4146EB060642EAC62141EA5551E0
:1005F0004FEAC52040EA5E504FEACE2EB4F1FD0C22
:1006000088BFBCF5E06F1ED8BEF1004F08BF5FEA9F
:10061000500E50F1000041EB045170BD06F0004651
:1006200046EA010140EA020081EA0301B4EB5C04FE
:10063000C2BFD4EB0C0541EA045170BD41F48011F6
:100640004FF0000E013C00F3AB8014F1360FDEBF1B
:10065000002001F0004170BDC4F10004203C35DAF7
:100660000C341BDC04F11404C4F1200500FA05F37A
:1006700020FA04F001FA05F240EA020001F000421B
:1006800021F0004110EBD37021FA04F642EB060191
:100690005EEA430E08BF20EAD37070BDC4F10C04BB
:1006A000C4F1200500FA04F320FA05F001FA04F27F
:1006B00040EA020001F0004110EBD37041F100016B
:1006C0005EEA430E08BF20EAD37070BDC4F1200576
:1006D00000FA05F24EEA020E20FA04F301FA05F2DE
:1006E00043EA020321FA04F001F0004121FA04F286
:1006F00020EA020000EBD3705EEA430E08BF20EA56
:10070000D37070BD94F0000F0FD101F0004640008F
:1007100041EB010111F4801F08BF013CF7D041EA11
:10072000060195F0000F18BF704703F00046520015
:1007300043EB030313F4801F08BF013DF7D043EAE6
:100740000603704794EA0C0F0CEA135518BF95EA9C
:100750000C0F0CD050EA410618BF52EA4306D1D123
:1007600081EA030101F000414FF0000070BD50EA42
:10077000410606BF1046194652EA430619D094EACC
:100780000C0F02D150EA013613D195EA0C0F05D1B6
:1007900052EA03361CBF104619460AD181EA03010A
:1007A00001F0004141F0FE4141F470014FF00000C2
:1007B00070BD41F0FE4141F4780170BD70B54FF05D
:1007C000FF0C4CF4E06C1CEA11541DBF1CEA1355DD
:1007D00094EA0C0F95EA0C0F00F0A7F8A4EB0504BF
:1007E00081EA030E52EA03354FEA013100F08880B6
:1007F0004FEA03334FF0805545EA131343EA12637F
:100800004FEA022245EA111545EA10654FEA002633
:100810000EF000419D4208BF964244F1FD0404F5EC
:10082000407402D25B084FEA3202B61A65EB030548
:100830005B084FEA32024FF480104FF4002CB6EB05
:10084000020E75EB030E22BFB61A754640EA0C0085
:100850005B084FEA3202B6EB020E75EB030E22BFC5
:10086000B61A754640EA5C005B084FEA3202B6EB06
:10087000020E75EB030E22BFB61A754640EA9C00C5
:100880005B084FEA3202B6EB020E75EB030E22BF95
:10089000B61A754640EADC0055EA060E18D04FEA53
:1008A000051545EA16754FEA06164FEAC30343EAF3
:1008B00052734FEAC2025FEA1C1CC0D111F4801FC0
:1008C0000BD141EA00014FF000004FF0004CB6E7B9
:1008D00011F4801F04BF01430020B4F1FD0C88BF58
:1008E000BCF5E06F3FF6AFAEB5EB030C04BFB6EB63
:1008F000020C5FEA500C50F1000041EB045170BD56
:100900000EF0004E4EEA113114EB5C04C2BFD4EB82
:100910000C0541EA045170BD41F480114FF0000E06
:10092000013C90E645EA060E8DE60CEA135594EA82
:100930000C0F08BF95EA0C0F3FF43BAF94EA0C0F85
:100940000AD150EA01347FF434AF95EA0C0F7FF4FA
:1009500025AF104619462CE795EA0C0F06D152EA4E
:1009600003353FF4FDAE1046194622E750EA410632
:1009700018BF52EA43067FF4C5AE50EA41047FF443
:100980000DAF52EA43057FF4EBAE12E74FF0FF3CA8
:1009900006E000BF4FF0010C02E000BF4FF0010C79
:1009A0004DF804CD4FEA410C7FEA6C5C4FEA430CF2
:1009B00018BF7FEA6C5C1BD001B050EA410C0CBF41
:1009C00052EA430C91EA030F02BF90EA020F0020A3
:1009D000704710F1000F91EA030F58BF994208BF0A
:1009E00090422CBFD8176FEAE37040F001007047C7
:1009F0004FEA410C7FEA6C5C02D150EA013C07D11E
:100A00004FEA430C7FEA6C5CD6D152EA033CD3D068
:100A10005DF8040B704700BF8446104662468C4662
:100A20001946634600E000BF01B5FFF7B7FF002895
:100A300048BF10F1000F01BD4DF808EDFFF7F4FFBE
:100A40000CBF012000205DF808FB00BF4DF808ED49
:100A5000FFF7EAFF34BF012000205DF808FB00BF6C
:100A60004DF808EDFFF7E0FF94BF012000205DF88E
:100A700008FB00BF4DF808EDFFF7CEFF94BF012043
:100A800000205DF808FB00BF4DF808EDFFF7C4FF3C
:100A900034BF012000205DF808FB00BF4FEA410C85
:100AA0007FEA6C5C02D150EA013C0AD14FEA430C68
:100AB0007FEA6C5C02D152EA033C02D14FF00000A5
:100AC00070474FF0010070474FEA4102B2F1E04336
:100AD00024BFB3F5001CDCF1FE5C0DD901F0004C25
:100AE0004FEAC0024CEA5070B2F1004F40EB830075
:100AF00008BF20F00100704711F0804F21D113F1A1
:100B00003872BCBF01F00040704741F480114FEAD9
:100B10005252C2F11802C2F1200C10FA0CF320FA62
:100B200002F018BF40F001004FEAC1234FEAD3237F
:100B300003FA0CFC40EA0C0023FA02F34FEA4303E9
:100B4000CCE77FEA625307D150EA01331EBF4FF072
:100B5000FE4040F44000704701F0004040F0FE408D
:100B600040F40000704700BF53B94AB9002908BFDC
:100B700000281CBF4FF0FF314FF0FF3000F072B97A
:100B8000ADF1080C6DE904CE00F006F8DDF804E0E4
:100B9000DDE9022304B070472DE9F047089E0446C2
:100BA0008846002B4BD18A42154667D9B2FA82F2A9
:100BB0004AB1C2F1200701FA02F320FA07F7954083
:100BC00047EA030894404FEA154E230CB8FBFEF7A2
:100BD0001FFA85FC0EFB178843EA084307FB0CF15C
:100BE000994209D9EB1807F1FF3080F01B81994237
:100BF00040F21881023F2B445B1AA4B2B3FBFEF013
:100C00000EFB103344EA034400FB0CFCA44509D955
:100C10002C1900F1FF3380F00781A44540F20481D4
:100C200002382C4440EA0740A4EB0C0400271EB114
:100C3000D4400023C6E900433946BDE8F0878B4223
:100C400009D9002E00F0EB800027C6E900013846E4
:100C50003946BDE8F087B3FA83F7002F47D18B42BE
:100C600002D3824200F2FA80841A61EB030301206E
:100C70009846002EE0D0C6E90048DDE702B9FFDE65
:100C8000B2FA82F2002A40F08F80491B4FEA154EDB
:100C90001FFA85F80127B1FBFEFC230C0EFB1C118B
:100CA00043EA014308FB0CF1994207D9EB180CF118
:100CB000FF3002D2994200F2CD808446591AA3B285
:100CC000B1FBFEF00EFB101443EA044408FB00F8ED
:100CD000A04507D92C1900F1FF3302D2A04500F23C
:100CE000B6801846A4EB080440EA0C409FE7C7F121
:100CF000200CBB4022FA0CFE4EEA030E01FA07F468
:100D000020FA0CF521FA0CF34FEA1E482543B3FBF9
:100D1000F8F92C0C08FB19331FFA8EFA44EA034346
:100D200009FB0AF49C4202FA07F200FA07F10BD918
:100D30001EEB030309F1FF3080F087809C4240F2F4
:100D40008480A9F1020973441B1BADB2B3FBF8F018
:100D500008FB103345EA034400FB0AFAA24508D910
:100D60001EEB040400F1FF336BD2A24569D90238AF
:100D7000744440EA0940A0FB0289A4EB0A044C45F4
:100D8000C2464B4654D351D0002E69D0B1EB0A0570
:100D900064EB030404FA0CFCFD40FC404CEA05053E
:100DA000C6E90054002747E7C2F1200320FA03F701
:100DB000954001FA02F021FA03F34FEA154E384349
:100DC000010CB3FBFEF71FFA85F80EFB173341EA5F
:100DD000034107FB08F38B4204FA02F407D96918B0
:100DE00007F1FF3C2FD28B422DD9023F2944CB1A69
:100DF00081B2B3FBFEF00EFB103341EA034100FB6E
:100E000008F38B4207D9691800F1FF3C17D28B42D7
:100E100015D902382944C91A40EA07473BE7374643
:100E2000304609E70746E7E61846FBE64145ABD200
:100E3000B8EB020A69EB0E0201381346A4E76046DC
:100E4000E9E7184695E76746D1E781467CE702382F
:100E50002C4447E7ACF1020C2B442FE7384608E757
:100E60003746E9E6704700BF034613F8012B002A16
:100E7000FBD1181A01387047000000000000000084
:100E800001F0FF01102A2BDB10F0070F08D010F83B
:100E9000013B013A8B422DD010F0070F42B3F6D13F
:100EA000F0B441EA012141EA014122F007047FF058
:100EB00000070023F0E80256083C85EA010586EAAF
:100EC000010685FA47F5A3FA87F586FA47F6A5FAEB
:100ED00087F68EB9EED1F0BC01F0FF0102F00702F7
:100EE00032B110F8013B013A83EA010313B1F8D1A2
:100EF0000020704701387047002D06BF3546033883
:100F0000073815F0010F07D1013015F4807F02BFBB
:100F1000013015F4C03F0130F0BC0138704700BF0C
:100F20004FEA410212F5001215D211D56FF4787311
:100F3000B3EB625212D94FEAC12343F0004343EAB4
:100F4000505311F0004F23FA02F018BF404270478F
:100F50004FF00000704750EA013005D111F0004019
:100F600008BF6FF0004070474FF00000704700BFAF
:100F700010B504460E4B18784FF47A73B3FBF0F3B8
:100F80000C4A1068B0FBF3F000F0A8F868B90F2C19
:100F900001D901200AE0002221464FF0FF3000F085
:100FA0005DF8034B5C60002000E0012010BD00BF35
:100FB000000000200800002008B50B4B1A6842F41E
:100FC00000721A601A6842F480621A601A6842F469
:100FD00080721A60032000F02FF80020FFF7C8FF8E
:100FE00003F0F4FA002008BD003C0240034A1168F7
:100FF000034B1B780B441360704700BF280200208E
:1010000000000020014B1868704700BF2802002034
:1010100038B50446FFF7F6FF0546B4F1FF3F02D0AE
:10102000044B1B781C44FFF7EDFF401BA042FAD392
:1010300038BD00BF00000020074AD36823F4E063F6
:101040001B041B0C000200F4E060184340F0BF607A
:1010500040F40030D060704700ED00E030B4174B32
:10106000DB68C3F30223C3F10704042C28BF042464
:101070001D1D062D18D9033B4FF0FF3505FA04F46A
:1010800021EA0401994005FA03F322EA0303194314
:1010900000280BDB0901C9B200F1604000F5614096
:1010A00080F8001330BC70470023E5E700F00F0024
:1010B0000901C9B2024B1954F4E700BF00ED00E08A
:1010C00014ED00E000F01F02400901239340024AA2
:1010D00042F82030704700BF00E100E00138B0F175
:1010E000807F0AD2064B5860064AF02182F823100E
:1010F0000020986007221A6070470120704700BFE7
:1011000010E000E000ED00E0042805D0054A136877
:1011100023F0040313607047024A136843F004038A
:101120001360704710E000E0704708B5FFF7FCFF60
:1011300008BD90F83530DBB2022B03D08023436525
:1011400001207047052380F835300268136823F0CA
:10115000010313600020704700230F2B00F2E3808F
:10116000F0B482B039E0092200E00022B2403A43F4
:1011700002346D4E46F824206C4A1468EA4302EAB1
:1011800004064F6817F4803F01D045EA0406674C17
:101190002660646802EA04064F6817F4003F01D035
:1011A00045EA0406614C6660A46802EA04064F68DA
:1011B00017F4801F01D045EA04065C4CA660E46881
:1011C00022404E6816F4001F01D045EA0402574C35
:1011D000E26001330F2B00F2A38001229A400C68D9
:1011E00004EA0205AA42F4D14C68022C01D0122C68
:1011F00010D1DE08083650F826C003F00704A70017
:101200000F24BC402CEA040C0C69BC4044EA0C04DA
:1012100040F8264004685F000326BE40F64306EA15
:10122000040C4C6804F00304BC4044EA0C04046061
:101230004C6804F1FF3CBCF1010F03D9112C01D023
:10124000122C10D1846806EA040CCC68BC4044EA35
:101250000C048460446824EA02024C68C4F300145D
:101260009C4014434460C26816408A68BA403243C6
:10127000C2604A6812F0805FABD0002201922C4A13
:10128000546C44F480445464526C02F480420192E1
:10129000019A9C08A61C244A52F8267003F0030207
:1012A00096000F22B24027EA0207224A90423FF4FA
:1012B0005CAF02F58062904222D002F580629042DB
:1012C00020D002F5806290421ED002F580629042EA
:1012D0001CD002F5806290421AD002F580629042E2
:1012E00018D002F58062904216D002F580629042DA
:1012F00014D002F5806290423FF435AF0A2235E700
:10130000012233E7022231E703222FE704222DE7EF
:1013100005222BE7062229E7072227E7082225E7EF
:1013200002B0F0BC7047704700380140003C0140FB
:10133000003802400000024012B909048161704780
:101340008161704703685A6912F4806F0DD06FF4A1
:1013500080625A610423036400230363202280F81F
:101360003D2080F83C300120704700207047F8B5E0
:1013700006460C4617461D461EE02DB1FFF742FEFD
:10138000069BC01AA84217D900233363202286F88F
:101390003D2086F83E3086F83C3003201AE0336862
:1013A0005B6924EA03039BB2B3FA83F35B099F42B0
:1013B0000FD1B5F1FF3FE0D1C4F30743012BEED0CD
:1013C00033689B6924EA03039BB2B3FA83F35B0996
:1013D000EDE70020F8BDF8B504460D4616461F4659
:1013E00032E01A6842F400721A6023686FF4806277
:1013F0005A610423236400232363202284F83D20C0
:1014000084F83C3001202DE026B1FFF7FBFDC01B26
:10141000B04219D900232363202284F83D2084F8A8
:101420003C3003201EE023685B6925EA03039BB27E
:10143000003318BF0123A3B123685A6912F4806FE7
:10144000CFD1B6F1FF3FDFD1C5F30743012BEAD07F
:1014500023689B6925EA03039BB2003318BF01236D
:10146000E9E70020F8BD0000F0B583B004460D4662
:1014700016461F46C36A042B0DD0012B0BD013F563
:10148000803F08D0036B122B0AD10268136843F423
:101490008073136004E02268136843F48073136060
:1014A0000097334600224FF001112046FFF75FFFFF
:1014B00058BB2369B3F5804F10D1236805F0FE05B2
:1014C0001D613B46324615492046FFF784FF03461F
:1014D000E0B1236C042B1ED1012317E0EB1122682D
:1014E00003F0060343F0F00313613B4632460C4918
:1014F0002046FFF770FF20B1236C042B09D1012394
:1015000004E02368EDB21D61DBE70323184603B056
:10151000F0BD0323FAE70323F8E700BF0200010050
:10152000080001002DE9F04184B004460D4616463E
:101530001F46C26A01680B6843F480630B60042A8B
:101540000DD0012A0BD012F5803F08D0036B112B70
:101550000AD10268136843F48073136004E02268C0
:10156000136843F4807313600097334600224FF0F2
:1015700001112046FFF7FBFE002852D12369B3F585
:10158000804F12D1236845F00105EDB21D613B4645
:1015900032462A492046FFF71EFF0346002841D065
:1015A000236C042B48D101233CE04FEAE51808F0F6
:1015B0000608236848F0F0021A613B46324620498B
:1015C0002046FFF708FF20B1236C042B2ED1012306
:1015D00028E02368EDB21D613B463246174920469C
:1015E000FFF7F9FE20B1236C042B21D1012319E070
:1015F0000022039223685969039199690391039921
:10160000196841F480711960009733464FF0011159
:101610002046FFF7ACFE68B9226848F0F103136179
:10162000B5E70323184604B0BDE8F0810323F9E7CA
:101630000323F7E70323F5E70323F3E702000100A1
:101640000800010070B504460D46164623685B6924
:1016500013F0800F19D12046FFF774FEB8B9B5F129
:10166000FF3FF3D025B1FFF7CDFC801BA842EDD999
:10167000236C43F02003236400232363202284F897
:101680003D2084F83C30032000E0002070BD0120A4
:10169000FCE770B504460D46164623685B6913F0F7
:1016A000040F19D12046FFF74DFEB8B9B5F1FF3F41
:1016B000F3D025B1FFF7A6FC801BA842EDD9236C1F
:1016C00043F02003236400232363202284F83D2079
:1016D00084F83C30032000E0002070BD0120FCE7CE
:1016E00070B505460C4616462B685A6912F0400F35
:1016F00022D15A6912F0100F11D124B1FFF782FCE8
:10170000801BA042F0D92B6C43F020032B642023D4
:1017100085F83D30002385F83C30032070BD6FF024
:1017200010025A6100232B642B63202285F83D2090
:1017300085F83C300120F1E70020EFE7002800F0B9
:10174000828010B5044690F83D30002B41D0242310
:1017500084F83D302268136823F00103136000F021
:10176000A1FE3A4BA3FB00239B0C226853606168E7
:10177000374A914232D80133226813626368344A8F
:10178000934235D85B00B0FBF3F0C0F30B03032B9F
:1017900000D804202368D861E369216A22680B43DA
:1017A00013602369E16822680B4393606369A16950
:1017B00022680B43D3602268136843F0010313606F
:1017C00000202064202384F83D30206384F83E000C
:1017D00010BD80F83C3002F043FFB8E74FF496723A
:1017E00002FB03F31B4AA2FB03239B090133C3E75C
:1017F000A16889B903EB4302B0FBF2F2C2F30B021A
:10180000B2FA82F25209E2B991B903EB4303B0FB99
:10181000F3F040F40040BDE703EB830202EB8202E9
:10182000B0FBF2F2C2F30B02B2FA82F25209EAE71B
:1018300003EB830303EB8303B0FBF3F040F440407E
:10184000A8E70120A6E70120704700BF83DE1B4305
:10185000A0860100D34D62102DE9F04184B004460A
:101860000E4690461F46FFF7CDFB94F83D30DBB2A5
:10187000202B04D00226304604B0BDE8F081054696
:1018800000901923012254492046FFF770FD0028DB
:1018900040F0998094F83C30012B00F096800123B1
:1018A00084F83C3023681A6812F0010F03D11A68DB
:1018B00042F001021A602268136823F40063136087
:1018C000212384F83D30102384F83E300023236424
:1018D000C4F824806785A3F58033E362638D238594
:1018E0002B460A9A31462046FFF7BEFD064660B1F8
:1018F000236C042B04D1002384F83C300126BAE782
:10190000002384F83C300326B5E7002303932368C3
:101910005A6903929B690393039B10E0236C042B89
:1019200055D12268136843F4007313600126A2E7BF
:101930002A460A992046FFF7ACFE00282BD1238DBA
:10194000002B32D02A460A992046FFF77BFE00285A
:10195000E4D1636A5A1C626222681B781361638D4A
:10196000013B9BB26385238D013B9BB2238522689B
:10197000516911F0040FDBD0002BD9D0636A591CD8
:1019800061621B781361638D013B9BB26385238D7C
:10199000013B2385CCE7236C042B1AD12268136802
:1019A00043F400731360012665E72268136843F46B
:1019B00000731360202384F83D30002384F83E3008
:1019C00084F83C3057E7022655E7022653E7032602
:1019D00051E703264FE700BF020010002DE9F04158
:1019E00086B004460E4690461F46FFF70BFB94F860
:1019F0003D30DBB2202B04D00226304606B0BDE8D5
:101A0000F08105460090192301228C492046FFF7FA
:101A1000AEFC002840F04B8194F83C30012B00F0E4
:101A20004881012384F83C3023681A6812F0010FC2
:101A300003D11A6842F001021A602268136823F485
:101A400000631360222384F83D30102384F83E3075
:101A500000232364C4F824806785A3F58033E36200
:101A6000638D23852B460C9A31462046FFF75AFD9D
:101A7000064660B1236C042B04D1002384F83C306B
:101A80000126BAE7002384F83C300326B5E7238D0E
:101A90005BB9029323685A6902929A690292029A88
:101AA0001A6842F400721A607AE0012B0FD0022B00
:101AB0001FD02268136843F48063136000230593EA
:101AC00023685A6905929B690593059B68E0226823
:101AD000136823F4806313600023039323685A6917
:101AE00003929A690392039A1A6842F400721A6088
:101AF00056E02268136823F4806313602268136839
:101B000043F4006313600023049323685A6904922A
:101B10009B690493049B43E02A460C992046FFF7F7
:101B2000DFFD68B923681A69636A591C61621A701B
:101B3000238D013B2385638D013B9BB263852FE0A1
:101B4000236C202B01D0012657E7032655E700958B
:101B50000C9B00223A492046FFF709FC002840F080
:101B6000AA802268136843F40073136023681A691B
:101B7000636A591C61621A70238D013B2385638D52
:101B8000013B9BB2638523681A69636A591C6162D1
:101B90001A70238D013B2385638D013B9BB26385C6
:101BA000238D002B7AD0032B4CD8012BB4D0022BE1
:101BB000CDD000950C9B002221492046FFF7D7FB92
:101BC00000287AD12268136823F4806313602368A5
:101BD0001A69636A591C61621A70238D013B23855F
:101BE000638D013B9BB2638500950C9B00221449D9
:101BF0002046FFF7BCFB002861D12268136843F43C
:101C00000073136023681A69636A591C61621A7051
:101C1000238D013B2385638D013B9BB26385236844
:101C20001A69636A591C61621A70238D013B23850E
:101C3000638D013B9BB26385B2E700BF02001000D9
:101C4000040001002A460C992046FFF749FDF0B92F
:101C500023681A69636A591C61621A70238D013BFB
:101C60002385638D013B9BB2638523685A6912F01B
:101C7000040F95D01A69636A591C61621A70238D2A
:101C8000013B2385638D013B9BB2638588E7236C11
:101C9000202B01D00126B0E60326AEE6202384F8EF
:101CA0003D30002384F83E3084F83C30A5E602261F
:101CB000A3E60226A1E603269FE603269DE6032669
:101CC0009BE600BF2DE9F04385B004468846914667
:101CD0001D46FFF797F994F83D30DBB2202B04D076
:101CE0000223184605B0BDE8F0830646009019238C
:101CF000012256492046FFF73AFB002840F09B801E
:101D000094F83C30012B00F09880012384F83C309B
:101D100023681A6812F0010F03D11A6842F0010219
:101D20001A602268136823F400631360242384F884
:101D30003D3000232364A3F58033E362012735E0BF
:101D4000A02384F83D3022685369C3F340035269ED
:101D5000C2F3802294F83D10C9B253B94AB9A02900
:101D600007D0002DECD0FFF74DF9801BA842EAD92F
:101D7000E6E7202384F83D3023685A6912F0020F09
:101D800035D11A6842F400721A6023686FF48062D9
:101D90005A610096192301222C492046FFF7E7FAE1
:101DA000002850D17B1C4F453DD21F462268136846
:101DB00043F48073136000962B4600224FF001110C
:101DC0002046FFF7D4FA002839D1236808F0FE0234
:101DD0001A61FFF717F9064622685369C3F34003F7
:101DE0005269C2F3802294F83D10C9B2B5E71A686F
:101DF00042F400721A600023039323685A69039225
:101E00009B690393039B0096192301220F492046E7
:101E1000FFF7ADFA0346A0B9202284F83D20002246
:101E200084F83C205DE7202384F83D30002384F8CB
:101E30003C30012355E7022353E7022351E70323F4
:101E40004FE703234DE703234BE700BF02001000D9
:101E500010B582B000230193194B1A6C42F08052E6
:101E60001A641B6C03F080530193019B154B0122F4
:101E70001A60FFF7C7F80446134B5B6813F4803F02
:101E800008D1FFF7BFF8001BB0F57A7FF4D9032023
:101E900002B010BD0D4B01221A60FFF7B3F80446E3
:101EA000094B5B6813F4003F07D1FFF7ABF8001B49
:101EB000B0F57A7FF4D90320EAE70020E8E700BF15
:101EC0000038024040000E420070004044000E42C4
:101ED000002800F0BB8170B582B00446036813F09F
:101EE000010F3BD0A74B9B6803F00C03042B2CD0B5
:101EF000A44B9B6803F00C03082B21D06368B3F557
:101F0000803F4FD0B3F5A02F52D09E4B1A6822F4D9
:101F100080321A601A6822F480221A606368002BEB
:101F200050D0FFF76FF80546964B1B6813F4003F3F
:101F300014D1FFF767F8401B6428F5D903208AE124
:101F4000904B5B6813F4800FD8D08E4B1B6813F452
:101F5000003F03D06368002B00F07A81236813F000
:101F6000020F55D0874B9B6813F00C0F3ED0854B6A
:101F70009B6803F00C03082B33D0E368002B68D078
:101F8000814B01221A60FFF73DF805467D4B1B6827
:101F900013F0020F54D1FFF735F8401B0228F5D992
:101FA000032058E1774A136843F480331360B5E7A0
:101FB000744B1A6842F480221A601A6842F4803224
:101FC0001A60ABE7FFF71EF805466E4B1B6813F46B
:101FD000003FC3D0FFF716F8401B6428F5D9032053
:101FE00039E1684B5B6813F4800FC6D1654B1B6801
:101FF00013F0020F04D0E368012B01D001202AE185
:10200000604A136823F0F803216943EAC1031360AF
:10201000236813F0080F40D0636963B35B4B012260
:102020001A60FEF7EFFF0546564B5B6F13F0020F89
:1020300033D1FEF7E7FF401B0228F5D903200AE160
:10204000504A136823F0F803216943EAC10313607F
:10205000DEE74D4B00221A60FEF7D4FF0546494BE0
:102060001B6813F0020FD3D0FEF7CCFF401B0228F1
:10207000F5D90320EFE0454B00221A60FEF7C2FFBE
:102080000546404B5B6F13F0020F06D0FEF7BAFF18
:10209000401B0228F5D90320DDE0236813F0040F6C
:1020A00079D0384B1B6C13F0805F33D10023019340
:1020B000344B1A6C42F080521A641B6C03F080534C
:1020C0000193019B0125324B1B6813F4807F23D0C1
:1020D000A368012B34D0052B38D02A4B1A6F22F07D
:1020E00001021A671A6F22F004021A67A368002B14
:1020F00036D0FEF787FF0646224B1B6F13F0020F08
:1021000048D1FEF77FFF801B41F288339842F3D914
:102110000320A0E00025D6E71D4A136843F480732E
:102120001360FEF76FFF0646194B1B6813F4807FA0
:10213000CED1FEF767FF801B0228F5D903208AE085
:10214000104A136F43F001031367CFE70D4B1A6F6B
:1021500042F004021A671A6F42F001021A67C5E7DB
:10216000FEF750FF0646074B1B6F13F0020F11D00E
:10217000FEF748FF801B41F288339842F3D90320D1
:1021800069E000BF0038024000004742800E47422D
:1021900000700040E5B9A369002B5BD0304A92681B
:1021A00002F00C02082A58D0022B17D02D4B002227
:1021B0001A60FEF727FF0446294B1B6813F0007FC7
:1021C00042D0FEF71FFF001B0228F5D9032042E092
:1021D000234A136C23F080531364DCE7214B002265
:1021E0001A60FEF70FFF05461D4B1B6813F0007FBA
:1021F00006D0FEF707FF401B0228F5D903202AE08E
:10220000E369226A1343626A43EA8213A26A5208AC
:10221000013A43EA0243E26A43EA0263104A536026
:10222000104B01221A60FEF7EDFE04460C4B1B68B2
:1022300013F0007F06D1FEF7E5FE001B0228F5D95A
:10224000032008E0002006E0002004E001207047A1
:10225000012000E0002002B070BD0120FBE700BFBC
:102260000038024060004742324B9B6803F00C0389
:10227000042B5CD0082B01D02F4870472DE9F04B80
:102280002C4B5A6802F03F025B6813F4800F2BD08E
:10229000284B5B68C3F388131E4600275C010025AA
:1022A000E41A65EB0705A90141EA9461A001001B4E
:1022B00061EB0501CB0043EA5073C400A01943EB66
:1022C00007014B0243EAD05344022046194600233B
:1022D000FEF74AFC174B5B68C3F3014301335B0015
:1022E000B0FBF3F0BDE8F08B124B5B68C3F38813CF
:1022F0001E4600275C010025E41A65EB0705A901CD
:1023000041EA9461A001001B61EB0501CB0043EAA7
:102310005073C400A01943EB07018B0243EA9053AA
:102320008402204619460023FEF71EFCD2E703482C
:10233000704700BF003802400024F40000127A0009
:10234000002800F09D8070B504464F4B1B6803F0D9
:102350000F038B4209D2CBB24B4A1370136803F0C0
:102360000F038B4201D0012070BD236813F0020FD0
:1023700017D013F0040F04D0444A936843F4E05399
:102380009360236813F0080F04D0404A936843F425
:10239000604393603D4A936823F0F003A0680343D1
:1023A00093600D46236813F0010F32D06368012B50
:1023B00021D09A1E012A25D9344A126812F0020F40
:1023C00060D032498A6822F0030213438B60FEF723
:1023D00019FE06462D4B9B6803F00C036268B3EBB5
:1023E000820F16D0FEF70EFE801B41F28833984212
:1023F000F0D90320B8E7254A126812F4003FE0D173
:102400000120B1E7214A126812F0007FD9D10120E2
:10241000AAE71D4B1B6803F00F03AB4209D9EAB2D0
:10242000194B1A701B6803F00F03AB4201D0012057
:102430009AE7236813F0040F06D0144A936823F434
:10244000E053E1680B439360236813F0080F07D053
:102450000E4A936823F46043216943EAC103936001
:10246000FFF702FF094B9B68C3F30313084AD35CD1
:10247000D840084B18600020FEF77AFD002073E773
:102480000120704701206FE7003C02400038024005
:102490003080000808000020014B1868704700BF1A
:1024A0000800002008B5FFF7F7FF044B9B68C3F353
:1024B0008223034AD35CD84008BD00BF00380240E5
:1024C0004080000808B5FFF7E7FF044B9B68C3F3A3
:1024D0004233034AD35CD84008BD00BF00380240F5
:1024E0004080000830B583B00446036813F0030F42
:1024F00014D1236813F00C0F5AD1236813F0200F66
:1025000040F0AF80236813F0100F00F0118194F8B1
:102510002C20884B1A60002003B030BD864B00226F
:102520001A60FEF76FFD0546844B1B6813F0006FC1
:1025300006D0FEF767FD401B0228F5D90320EBE724
:10254000236813F0010F07D06268A3681B0743EAF2
:1025500082137A4AC2F88430236813F0020F15D030
:10256000764AD2F884106068E3681B0643EA801359
:1025700001F0E0410B43C2F88430D2F88C3023F0F4
:102580001F03E16901390B43C2F88C306A4B012209
:102590001A60FEF737FD0546684B1B6813F0006FA5
:1025A000A7D1FEF72FFD401B0228F5D90320B3E782
:1025B000634B00221A60FEF725FD05465F4B1B6842
:1025C00013F0005F06D0FEF71DFD401B0228F5D971
:1025D0000320A1E7236813F0040F16D0574AD2F85E
:1025E0008810206963691B0643EA801301F0E0410B
:1025F0000B43C2F88830D2F88C3023F4F853216AA8
:10260000013943EA0123C2F88C30236813F0080F24
:1026100014D04A4AD2F88830216903F0706343EA43
:102620008113A16943EA0173C2F88830D2F88C3073
:1026300023F44033616A0B43C2F88C30404B0122D3
:102640001A60FEF7DFFC05463C4B1B6813F0005F89
:102650007FF453AFFEF7D6FC401B0228F4D90320C9
:102660005AE700230193354B1A6C42F080521A64EA
:102670001B6C03F080530193019B324A136843F4AF
:1026800080731360FEF7BEFC05462E4B1B6813F4E7
:10269000807F06D1FEF7B6FC401B0228F5D9032047
:1026A0003AE7264B1B6F13F4407312D0A26A02F470
:1026B00040729A420DD0214B1A6F22F44072224987
:1026C00001200860002008601A671B6F13F0010FDB
:1026D00012D1A36A03F44072B2F5407F1DD0174AAD
:1026E000936823F4F813936014490B6FA26AC2F342
:1026F0000B0213430B6705E7FEF784FC05460F4BFF
:102700001B6F13F0020FE4D1FEF77CFC401B41F27B
:1027100088339842F3D90320FEE608498A6822F4F8
:10272000F81223F0704323F4407313438B60DBE70C
:102730000020F1E6E01147426800474200380240BD
:102740007000474200700040400E474238B50446D2
:102750000268D36823F0A003D360FEF753FC05465C
:102760002368DB6813F0200F07D1FEF74BFC401BFA
:10277000B0F57A7FF4D9032000E0002038BD38B5E9
:102780000368DA6812F0400F01D0002038BD04461B
:102790004FF0FF32DA60FEF735FC05462368DB6850
:1027A00013F0400F07D1FEF72DFC401BB0F57A7FE8
:1027B000F4D90320EAE70020E8E738B500285CD028
:1027C0000446437F002B40D0022363772368CA224C
:1027D0005A62236853225A622046FFF7D0FF05460B
:1027E000002836D12268936823F4E00323F04003E5
:1027F000936021688A6863682069034360690343C2
:1028000013438B602368E2681A6122681369A16828
:1028100043EA014313612268D36823F08003D36045
:1028200023689B6813F0200F1BD02268136C23F4DD
:10283000802313642268136CA1690B43136423681B
:10284000FF225A620123637709E0037701F034FF26
:10285000BAE72368FF225A620423637701252846DA
:1028600038BD2046FFF772FF0028DED02368FF2224
:102870005A62042363770125F1E70125EFE70000A1
:1028800070B4036A23F001030362036A4268846937
:1028900024F073040D6845EA040623F002048B68F3
:1028A00023430C4DA84202D00B4CA0420BD123F085
:1028B0000803CD682B4323F0040322F440724D69D2
:1028C00015438A692A43426086614A68426303620B
:1028D00070BC7047000001400004014030B4036A3E
:1028E00023F480730362036A4268C46924F07304AA
:1028F0000D682C4323F400738D6843EA05230E4DC5
:10290000A84203D005F58065A8420ED123F40063E8
:10291000CD6843EA052323F4806322F440524D69D5
:1029200042EA05128D6942EA05124260C4614A68B2
:10293000C263036230BC70470000014030B4036AD8
:1029400023F480530362036A4468C26922F4E642B6
:102950000D6842EA052223F400538D6843EA0533EB
:10296000094DA84203D005F58065A84204D124F49E
:1029700080444D6944EA85144460C2614A68026437
:10298000036230BC704700BF0000014010B4036A0E
:10299000046A24F001040462846924F0F00444EA27
:1029A000021223F00A030B43826103625DF8044BB9
:1029B000704710B4036A23F0100303628469036A4A
:1029C00024F4704444EA023223F0A00343EA0113E2
:1029D000826103625DF8044B7047836823F07003E3
:1029E00041F0070119438160704710B4846824F4F2
:1029F0007F4442EA03230B43234383605DF8044B87
:102A000070470268D36843F00103D360026813681B
:102A100043F0010313600020704790F83830012B19
:102A20007DD010B50446012380F83830022380F8A9
:102A300039300268936823F47F4323F0770393606F
:102A40000B68402B57D010D9702B3ED01FD8502B7D
:102A500047D0602B32D1CA6849680068FFF7A9FFE8
:102A600060212068FFF7B9FF28E0102B4DD008D96E
:102A7000202B4FD0302B21D130210068FFF7ADFF44
:102A80001CE0DBB900210068FFF7A7FF16E0B3F5F3
:102A9000805F0ED0B3F5005F10D1CB684A688968BB
:102AA0000068FFF7A2FF2268936843F480439360B5
:102AB00004E00268936823F007039360012384F81D
:102AC0003930002084F8380010BDCB684A68896826
:102AD0000068FFF78AFF2268936843F077039360EA
:102AE000ECE7CA6849680068FFF750FF502120688A
:102AF000FFF773FFE2E7CA6849680068FFF746FF1F
:102B000040212068FFF769FFD8E710210068FFF730
:102B100064FFD3E720210068FFF75FFFCEE70220C4
:102B20007047704770477047704710B50446036898
:102B30001A6912F0020F11D0DA6812F0020F0DD0EC
:102B40006FF002021A610123037603689B6913F098
:102B5000030F70D0FFF7E6FF0023237623681A697E
:102B600012F0040F12D0DA6812F0040F0ED06FF0DA
:102B700004021A610223237623689B6913F4407FC1
:102B80005FD02046FFF7CEFF0023237623681A6923
:102B900012F0080F12D0DA6812F0080F0ED06FF0A2
:102BA00008021A61042323762368DB6913F0030FFC
:102BB0004ED02046FFF7B6FF0023237623681A691C
:102BC00012F0100F12D0DA6812F0100F0ED06FF062
:102BD00010021A61082323762368DB6913F4407F0F
:102BE0003DD02046FFF79EFF0023237623681A6915
:102BF00012F0010F03D0DA6812F0010F36D123680A
:102C00001A6912F0800F03D0DA6812F0800F34D105
:102C100023681A6912F0400F03D0DA6812F0400FEF
:102C200032D123681A6912F0200F03D0DA6812F04B
:102C3000200F30D110BDFFF774FF2046FFF773FF60
:102C40008AE72046FFF76DFF2046FFF76CFF9BE702
:102C50002046FFF766FF2046FFF765FFACE72046FA
:102C6000FFF75FFF2046FFF75EFFBDE76FF0010251
:102C70001A61204600F0DAFDC1E76FF080021A61A8
:102C8000204600F0C3F9C3E76FF040021A61204606
:102C9000FFF74AFFC5E76FF020021A61204600F0F7
:102CA000B4F9C7E703682E4A904212D0B0F1804FC2
:102CB0000FD0A2F57C4290420BD002F58062904288
:102CC00007D002F58062904203D002F5784290422C
:102CD00003D123F070034A681343214A90422AD05B
:102CE000B0F1804F27D0A2F57C42904223D002F56C
:102CF000806290421FD002F5806290421BD002F5A4
:102D00007842904217D002F57052904213D002F5EB
:102D1000806290420FD002F5806290420BD0A2F503
:102D20009832904207D002F58062904203D002F5BB
:102D30008062904203D123F44073CA681343036056
:102D40008B68C3620B688362054B984203D003F51E
:102D50008063984201D10B6903630123436170478B
:102D600000000140A8B110B5044690F839305BB1BD
:102D7000022384F83930211D2068FFF793FF0123D7
:102D800084F83930002010BD80F8383001F0CAFCDA
:102D9000EEE701207047A8B110B5044690F839302D
:102DA0005BB1022384F83930211D2068FFF77AFFD8
:102DB000012384F83930002010BD80F8383001F04C
:102DC00089FCEEE70120704730B4036A23F010035A
:102DD0000362036A4468826922F4E6420D6842EAAB
:102DE000052223F020038D6843EA05130E4DA84207
:102DF00003D005F58065A8420ED123F08003CD688D
:102E000043EA051323F0400324F440644D6944EA87
:102E100085048D6944EA8504446082614A6882635E
:102E2000036230BC704700BF0000014038B590F825
:102E30003830012B66D00D460446012380F8383027
:102E4000022380F839300C2A1AD8DFE802F007197B
:102E50001919201919193419191947000068FFF7B1
:102E60000FFD2268936943F0080393612268936918
:102E700023F0040393612268936929690B439361EA
:102E8000012384F83930002084F8380038BD006808
:102E9000FFF79AFF2268936943F400639361226805
:102EA000936923F48063936122689369296943EAF3
:102EB00001239361E4E70068FFF710FD2268D369FE
:102EC00043F00803D3612268D36923F00403D3617C
:102ED0002268D36929690B43D361D1E70068FFF702
:102EE0002DFD2268D36943F40063D3612268D3695E
:102EF00023F48063D3612268D369296943EA0123FB
:102F0000D361BDE70220C1E710B4012303FA01F445
:102F1000036A23EA04030362036A8A4013430362D9
:102F20005DF8044B7047000010B5044601220068AC
:102F3000FFF7EAFF2368094A934203D002F5806253
:102F4000934203D15A6C42F400425A6422681368D7
:102F500043F001031360002010BD00BF00000140DA
:102F600090F83830012B22D030B4012280F838207C
:102F7000022380F839300468636823F070036360CB
:102F8000046863680D682B4363600468A36823F0DA
:102F90008003A3600468A36849680B43A36080F8BA
:102FA0003920002380F83830184630BC70470220A2
:102FB000704790F83830012B25D0012380F8383045
:102FC000CB6823F440738A68134323F480634A6810
:102FD000134323F400630A68134323F480530A69FC
:102FE000134323F400534A69134323F480438A694B
:102FF000134323F40043134302685364002380F80F
:103000003830184670470220704770477047026892
:10301000D36823F49073D3600268536923F00103EB
:103020005361202380F83A30704790F83930DBB292
:10303000212B2AD18368B3F5805F16D0036A5A1C0E
:1030400002621A7803685A60C38C013B9BB2C38446
:10305000EBB90268D36823F08003D3600268D368B9
:1030600043F04003D36000207047036A1B88026866
:10307000C3F30803536003691BB9036A0233036295
:10308000E2E7036A01330362DEE7022070470020B3
:10309000704700002DE9F843044601680A6922F4EC
:1030A0004052C36813430B610168CA6822F4164298
:1030B00022F00C0283680069034360690343E069FE
:1030C00003431343CB6021684A6922F44072A36929
:1030D00013434B61E369B3F5004F60D02368B84AEE
:1030E000934200F0148102F58062934200F00F8158
:1030F000FFF7D8F900EB800000EB80006568AD00B9
:10310000B0FBF5F5AF4FA7FB05356D092E01FFF7B5
:10311000C9F900EB800000EB80006568AD00B0FBF2
:10312000F5F9FFF7BFF900EB800000EB8000656860
:10313000AD00B0FBF5F5A7FB05356D094FF0640850
:1031400008FB15952D013235A7FB05356D0905F0F6
:10315000F0053544FFF7A6F900EB800000EB800096
:103160006668B600B0FBF6F6FFF79CF900EB80004E
:1031700000EB800063689B00B0FBF3F0A7FB00301E
:10318000400908FB10684FEA081808F13208A7FB4D
:103190000837C7F3431723682F449F600DE1236866
:1031A000874A93425BD002F58062934257D0FFF783
:1031B00079F900EB800000EB800065686D00B0FBE2
:1031C000F5F5804FA7FB05356D092E01FFF76AF96C
:1031D00000EB800000EB800065686D00B0FBF5F946
:1031E000FFF760F900EB800000EB800065686D0080
:1031F000B0FBF5F5A7FB05356D094FF0640808FB3A
:103200001595ED003235A7FB05356D096D0005F408
:10321000F8753544FFF746F900EB800000EB8000BD
:1032200066687600B0FBF6F6FFF73CF900EB80002D
:1032300000EB800063685B00B0FBF3F3A7FB0323A4
:103240005B0908FB13684FEAC80808F13208A7FBBE
:103250000837C7F3421723682F449F60ADE0FFF79C
:1032600031F900EB800000EB800065686D00B0FB79
:10327000F5F5544FA7FB05356D092E01FFF722F92F
:1032800000EB800000EB800065686D00B0FBF5F995
:10329000FFF718F900EB800000EB800065686D0017
:1032A000B0FBF5F5A7FB05356D094FF0640808FB89
:1032B0001595ED003235A7FB05356D096D0005F458
:1032C000F8753544FFF7FEF800EB800000EB800056
:1032D00066687600B0FBF6F6FFF7F4F800EB8000C6
:1032E00000EB800063685B00B0FBF3F3A7FB0323F4
:1032F0005B0908FB13684FEAC80808F13208A7FB0E
:103300000837C7F3421723682F449F6055E0FFF743
:10331000D9F800EB800000EB80006568AD00B0FBE1
:10332000F5F5284FA7FB05356D092E01FFF7CAF803
:1033300000EB800000EB80006568AD00B0FBF5F9A4
:10334000FFF7C0F800EB800000EB80006568AD007F
:10335000B0FBF5F5A7FB05356D094FF0640808FBD8
:1033600015952D013235A7FB05356D0905F0F005E2
:103370003544FFF7A7F800EB800000EB800066689B
:10338000B600B0FBF6F6FFF79DF800EB800000EB0F
:10339000800063689B00B0FBF3F0A7FB003040099E
:1033A00008FB10684FEA081808F13208A7FB083735
:1033B000C7F3431723682F449F60BDE8F88300BF1D
:1033C000001001401F85EB5158B310B5044690F82A
:1033D00039300BB3242384F839302268D36823F4BE
:1033E0000053D3602046FFF755FE2268136923F48B
:1033F000904313612268536923F02A0353612268C2
:10340000D36843F40053D3600020E063202384F8A2
:10341000393084F83A3010BD80F8383001F0DEF9E8
:10342000D8E70120704790F83930DBB2202B16D155
:10343000B9B1C2B190F83830012B16D00162828444
:10344000C2840023C363212280F8392080F83830F9
:103450000168CA6842F08002CA60184670470220BC
:103460007047012070470120704702207047704765
:1034700008B50168CB6823F04003CB60202380F8B7
:103480003930FFF7F4FF002008BD704708B590F809
:103490003A30DBB2222B40D18368B3F5805F0ED087
:1034A000036903BB03685A68836A591C81621A70F6
:1034B000C38D013B9BB2C385F3B100202EE0826A2D
:1034C000036943B903685B68C3F308031380836A25
:1034D00002338362ECE703685B68DBB21380836AC4
:1034E00001338362E4E703685B68826A511C81628E
:1034F00003F07F031370DBE70268D36823F4907353
:10350000D3600268536923F001035361202380F8DC
:103510003A30FFF7BAFF002000E0022008BD7047F4
:1035200010B5044602681368D168526913F00F00A1
:1035300005D113F0200F02D011F0200F53D1002835
:1035400067D012F0010202D111F4907F61D013F024
:10355000010F06D011F4807F03D0E06B40F0010032
:10356000E06313F0040F04D01AB1E06B40F00200E6
:10357000E06313F0020F04D01AB1E06B40F00400D6
:10358000E06313F0080F04D01AB1E26B42F00802B6
:10359000E263E26B002A48D013F0200F02D011F052
:1035A000200F24D123685B6903F04003E26B12F023
:1035B000080F00D13BB32046FFF729FD23685A6965
:1035C00012F0400F1BD05A6922F040025A61636B1F
:1035D0008BB11A4A1A65606BFDF7ABFD28B3606BBF
:1035E000036D984721E02046FFF750FF1DE020467D
:1035F000FFF74CFFD6E72046FFF791FF15E0204686
:10360000FFF78DFF11E02046FFF789FF0023E363FA
:103610000BE013F0800F02D011F0800F06D113F0F1
:10362000400F02D011F0400F04D110BD2046FFF72B
:10363000FCFCFAE72046FFF71BFFF6E741360008DF
:1036400008B5806B0023C385C384FFF768FF08BDFE
:103650002DE9F04F8DB0002400946D4B1A6B42F0B1
:1036600004021A631A6B02F004020092009A019499
:103670001A6B42F080021A631A6B02F08002019208
:10368000019A02941A6B42F001021A631A6B02F05B
:1036900001020292029A03941A6B42F010021A631A
:1036A0001A6B02F010020392039A04941A6B42F010
:1036B00002021A631A6B02F002020492049A059441
:1036C0001A6B42F008021A631A6B02F008020592A4
:1036D000059A06941A6B42F040021A631B6B03F0C2
:1036E00040030693069B22464FF440414948FDF7AC
:1036F00023FEDFF830A122464FF481415046FDF70A
:103700001BFE454F224640213846FDF715FE4FF47B
:10371000005BCDF81CB0414B08930994DFF8089189
:1037200007A94846FDF718FD32230793022608969D
:10373000099403250A954FF00B08CDF82C8007A9B2
:103740004846FDF709FD86230793089609940A95D4
:10375000CDF82C8007A93248FDF7FEFC4FF440431A
:1037600007934FF00109CDF8209009940A9507A915
:103770002848FDF7F1FCCDF81CB0089609940A958D
:10378000CDF82C8007A95046FDF7E6FC4FF48143A5
:103790000793CDF8209009940A9407A95046FDF7A5
:1037A000DBFC40230793CDF8209009940A9407A9E5
:1037B0003846FDF7D1FC802307930894099407A9A4
:1037C0003846FDF7C9FC4FF4E8530793089609946F
:1037D0000A950A230B9307A91148FDF7BDFC4FF486
:1037E000007307930894099407A90D48FDF7B4FCEA
:1037F0004FF420530793089609940A95CDF82C802E
:1038000007A93846FDF7A8FC0DB0BDE8F08F00BF52
:103810000038024000100240001802400000111061
:103820000000024000040240000802400268094B08
:103830009A4200D07047084A137801335BB2137084
:10384000072BF7D1134600221A705A8801325A808A
:10385000F0E700BF00040040FC01002038B5114C27
:10386000114D2146284600F042FEB4F90C200F4BC2
:103870001A80B4F90E200E4B1A80B4F910200D4BAB
:103880001A802146284600F069FEB4F912200A4B3E
:103890001A80B4F91420094B1A80B4F91620084B89
:1038A0001A8038BD4404002080020020D803002084
:1038B0000003002058030020300200205A0300209B
:1038C000D203002010B52DED068B00249FED368A23
:1038D000F0EE488AB0EE489AF0EE489AB0EE48AA68
:1038E000F0EE48AA3BE0FFF7B9FF304BB3F90030E8
:1038F00007EE903AF8EEE77A7AEEA7AA2C4BB3F9E6
:10390000003007EE903AF8EEE77A3AEE27AA294B14
:10391000B3F9003007EE903AF8EEE77A79EEA79A1D
:10392000254BB3F9003007EE903AF8EEE77A39EE1E
:10393000279A224BB3F9003007EE903AF8EEE77A77
:1039400078EEA78A1E4BB3F9003007EE903AF8EEF6
:10395000E77A38EE278A6420FDF75AFB0134092CF8
:10396000C1DDF2EE047A8AEEA77A164B83ED007A77
:103970008AEE277A144B83ED007A89EEA77A134BEF
:1039800083ED007A89EE277A114B83ED007A88EE79
:10399000A77A104B83ED007A88EE277A0E4B83EDE1
:1039A000007ABDEC068B10BD00000000D80300209B
:1039B0000003002058030020300200205A0300209A
:1039C000D2030020600400204003002040040020B7
:1039D0002004002024040020E8020020074B5A881D
:1039E00007EE902AF8EE677ADFED056A87EEA67A91
:1039F000044A82ED007A00225A807047FC010020C0
:103A0000002474472804002038B52DED088B5C4B4A
:103A1000B3F9003009EE103AB8EEC99A594BD3ED1C
:103A2000007A39EE679A584BB3F9003008EE103A35
:103A3000B8EEC88A554BD3ED007A38EE678A544BFE
:103A4000B3F9003008EE903AF8EEE88A514B93ED66
:103A5000007ADFED517A77EEC77A78EEA78A9FED8C
:103A600044BB18EE100AFCF727FDB0EE4B1AF0EE3F
:103A70006B1A41EC100B01F003F955EC104B18EEEA
:103A8000900AFCF719FD41EC1A0BB0EE4B1AF0EE60
:103A90006B1A41EC100B01F0F3F853EC102B20469D
:103AA0002946FCF7ABFB41EC100B01F085FA51EC19
:103AB000100BFDF709F8F1EE497A07EE100AC7EE90
:103AC000877A17EE900AFCF7F7FC41EC100B00F038
:103AD0001FFF29A3D3E9002351EC100BFCF744FD91
:103AE000FCF7F2FF2D4B186019EE100AFCF7E4FC0E
:103AF000B0EE4B1AF0EE6B1A41EC100B01F0C0F86F
:103B000055EC104BB0EE4B1AF0EE6B1AB0EE4A0AC1
:103B1000F0EE6A0A01F0B4F853EC102B2046294667
:103B2000FCF76CFB41EC100B01F046FA51EC100B6A
:103B3000FCF7CAFF07EE900AC8EE277A17EE900A44
:103B4000FCF7BAFC41EC100B00F0E2FE0AA3D3E94B
:103B5000002351EC100BFCF707FDFCF7B5FF104BF1
:103B60001860104B00221A60BDEC088B38BD00BFF6
:103B70000000000000000040000000C0DDA54C4037
:103B8000D803002060040020000300204003002030
:103B90005803002040040020000080462C04002030
:103BA00038020020D40200201A4BB3F9003007EE8F
:103BB000903AF8EEE77A184B93ED007A77EEC77AF1
:103BC0009FED167AC7EE876A154BC3ED006A154B59
:103BD000B3F9003007EE903AF8EEE77A124BD3EDE6
:103BE000006A77EEE67AC7EE876A104BC3ED006A8B
:103BF0000F4BB3F9003007EE903AF8EEE77A0D4B31
:103C0000D3ED006A77EEE67AC7EE876A0A4BC3ED1A
:103C1000006A7047300200202004002000000343A7
:103C2000CC0300205A03002024040020FC020020C2
:103C3000D2030020E80200203C0400200000000025
:103C40002DE9F8432DED048B314BD3ED007A314B48
:103C500093ED007A27EE877A2F4ED6ED006A37EE85
:103C6000267A2E4BD3ED008A67EEA88A2C4DD5ED2F
:103C7000006A78EEA68A2B4B93ED008A67EE887A6D
:103C8000294C94ED008A37EE888A9FED289A67EEDA
:103C9000097A17EE900AFCF70FFC80468946244B00
:103CA0001868FCF709FC18A3D3E90023FCF75CFCB7
:103CB00002460B4640464946FCF7A0FAFCF704FFD3
:103CC000306068EE897A17EE900AFCF7F5FB06463D
:103CD0000F46184B1868FCF7EFFB0BA3D3E9002342
:103CE000FCF742FC02460B4630463946FCF786FAA2
:103CF000FCF7EAFE286084ED008ABDEC048BBDE889
:103D0000F88300BFAFF300800000000050B89E3F72
:103D100028040020CC0300203C020020FC020020EC
:103D2000640300203C04002034040020EC51783F60
:103D3000380200202C04002010B500242BE0FFF7EF
:103D40008DFDFFF74BFEFFF75FFEFFF72DFFFFF73F
:103D500077FF214BD3ED007A204A92ED007A77EE7F
:103D6000877AC3ED007A1E4BD3ED007A1D4A92ED9F
:103D7000007A77EE877AC3ED007A1B4BD3ED007A99
:103D80001A4A92ED007A77EE877AC3ED007A6420C2
:103D9000FDF73EF90134092CD1DD0F4B93ED007A8C
:103DA000F2EE047A87EE276A83ED006A0C4B93EDFE
:103DB000007AC7EE276AC3ED006A0B4BD3ED005AB9
:103DC00085EEA77A83ED007A094B83ED016AC3ED96
:103DD000026A83ED037A10BD5003002064030020C3
:103DE000D80200203C0200204403002034040020BC
:103DF000FC010020FEE7000008B50B480B4B0360F8
:103E00004FF4E133436000238360C36003610C22FD
:103E100042618361C361FFF7D7FA00B908BD40F280
:103E2000E9210348FFF7E6FF400200200048004078
:103E30004880000800B591B02F48304B03604FF424
:103E40007A734360002383605A22C2600361436136
:103E5000FEF7A1FF002835D100230E930F930EA982
:103E60002548FFF77DF8002831D160230793002211
:103E7000089209920A920B924FF480730C930D9260
:103E800007A91D48FEF7D2FF30BB00230C93042284
:103E900007A91948FEF7CAFF18BB00230093019336
:103EA0000293039304934FF40052059206936946DC
:103EB0001148FFF77EF8C8B90F4800F053FC11B065
:103EC0005DF804FB40F265210D48FFF793FF4FF4C6
:103ED0001B710B48FFF78EFF4FF41E710848FFF768
:103EE00089FF40F27E210648FFF784FF40F28A21D5
:103EF0000348FFF77FFF00BF900300200000014050
:103F00004880000808B50C480C4B03600C4B43601C
:103F100000238360C3604FF4804202614361836188
:103F2000C3610362FDF70AFC00B908BD40F231210C
:103F30000448FFF75FFF00BF8002002000540040EC
:103F4000A08601004880000800B58BB021484FF0E2
:103F5000804303604FF47A734360002383605A22E6
:103F6000C2600361FEF717FFF8B9002308930993B5
:103F700008A91848FEF7F4FFE0B960230193002375
:103F8000029303930593082201A91248FEF74EFFFE
:103F9000A8B90C2201A90F48FEF748FFA0B90D48A7
:103FA00000F0E0FB0BB05DF804FB40F29F210A48F3
:103FB000FFF720FF40F2A6210748FFF71BFF40F262
:103FC000AF210548FFF716FF4FF42D710248FFF7A8
:103FD00011FF00BFE40300204880000800B587B04F
:103FE0001748184B03600922426000238360C260B7
:103FF0000361FEF7B7FE98B906A94FF4805341F864
:10400000103D0F48FEF709FD78B900230093019396
:1040100069460B48FEF7A4FF60B907B05DF804FBE2
:1040200040F2C9210848FFF7E5FE40F2CF210648DB
:10403000FFF7E0FE40F2D6210348FFF7DBFE00BFAA
:1040400004030020000400404880000808B50A4826
:104050000A4B0360002343607F228260FF22C2601C
:10406000036143618361FEF7A8FB00B908BD40F21C
:104070004D210348FFF7BEFE6C03002000280040DE
:104080004880000800B5A1B000230193364A116CA6
:1040900041F080511164126C02F080520192019A39
:1040A0000293324A116841F440411160126802F4EF
:1040B00040420292029A062214920122169217920C
:1040C0001022189202221A921B9308231C93B423E5
:1040D0001D931E9207231F9314A8FDF7F9FE70BBD2
:1040E000FDF7B6FE80BB0F230F930223109300232E
:1040F00011934FF4A0531293139305210FA8FEF7C9
:104100001FF930BB202303934FF480730D9303A852
:10411000FEF7E8F910BBFEF7BFF9154BA3FB003023
:104120008009FCF7DBFF0420FCF7EEFF00221146BC
:104130004FF0FF30FCF792FF21B05DF804FB40F236
:10414000F7110C48FFF756FE4FF4FF710948FFF7CF
:1041500051FE4FF403710748FFF74CFE40F2132164
:104160000448FFF747FE00BF0038024000700040DF
:10417000D34D62104880000830B5A5B0444B20AC48
:104180000FCB07C424F8023B1B0C23701BAC414D22
:104190000FCD0FC42B6823706422002102A801F008
:1041A000E9FEFCF709FFFFF76DFFFFF751FAFFF794
:1041B00023FEFFF73FFEFFF7A5FEFFF7C5FEFFF763
:1041C0000DFFFFF743FF344C00212046FEF7ACFE05
:1041D00004212046FEF7A8FE304C08212046FEF7B9
:1041E000A3FE0C212046FEF79FFE2D48FEF709FC9A
:1041F0000022009213462B492B4800F01FF9044679
:104200004FF47A70FCF704FF4CBB0F2220A927481B
:10421000FFF709F94FF4FA70FCF7FAFEFFF752FBCB
:10422000FFF78AFDFFF7DAFBFFF718FBFFF7ECFB60
:10423000FFF7BAFCFFF704FD1D4B1868FCF73CF9CB
:1042400002460B461B4902A802F0F8FA02A8FCF746
:104250000BFE82B202A91548FFF7E5F8E2E711224A
:104260001BA91248FFF7DFF80022009213460D4900
:104270000D4800F0E3F8044611221BA90B48FFF794
:10428000D2F84FF4FA70FCF7C3FE002CECD1C1E772
:10429000708000088080000890030020E403002064
:1042A000040300204404002080020020400200207B
:1042B0003C0200205880000830B585B005460C78D7
:1042C00019238DF80C308DF80D204FF47A7300937C
:1042D000022303AA21462846FDF7BEFA0028F4D19E
:1042E00005B030BD2DE9F04184B005460F461646B5
:1042F00091F800801C238DF80E301FFA88F44FF4DB
:104300007A73009301230DF10E0221462846FDF732
:10431000A3FA0028F1D14FF47A73009301230DF131
:104320000F0221462846FDF759FB0028F3D19DF8DE
:104330000F3023F018035BB243EAC6038DF80F3049
:104340004FF47A73009301230DF10F0221462846A2
:10435000FDF782FA0028F3D1032E06D8DFE806F035
:1043600002090D114FF06253BB60002004B0BDE89C
:10437000F0814FF06453BB60F7E74FF06653BB60CA
:10438000F3E74FF06853BB60EFE700002DE9F04121
:1043900084B005460F46164691F800801B238DF821
:1043A0000E301FFA88F44FF47A73009301230DF155
:1043B0000E0221462846FDF74FFA0028F1D14FF4AE
:1043C0007A73009301230DF10F0221462846FDF771
:1043D00005FB0028F3D19DF80F3023F018035BB2E2
:1043E00043EAC6038DF80F304FF47A73009301232C
:1043F0000DF10F0221462846FDF72EFA0028F3D1D1
:10440000032E05D8DFE806F002080B0E074B7B6091
:10441000002004B0BDE8F081054B7B60F8E7054B58
:104420007B60F5E7044B7B60F2E700BF2D23FA3B8E
:104430002D237A3C90C1F93C90C1793DF0B585B00F
:1044400006460D461F4675238DF80F3042F0D00208
:104450000A7094B2052302222146FDF733FC10B105
:10446000012005B0F0BD4FF47A73009301230DF1E4
:104470000F0221463046FDF7EFF908B10120F0E7C1
:104480004FF47A73009301230DF10E02214630465A
:10449000FDF7A4FA48BB9DF80E30682B01D003202D
:1044A000DFE76B238DF80C3000238DF80D304FF4CF
:1044B0007A730093022303AA21463046FDF7CCF914
:1044C00008B10120CDE7072229463046FFF7F4FE68
:1044D0003A4629463046FFF705FF9DF82820294631
:1044E0003046FFF753FF0020BBE70120B9E7F0B5E6
:1044F00087B005460F463B238DF80F300E78B4B2D7
:104500004FF47A73009301230DF10F0221462846E0
:10451000FDF7A2F90028F2D14FF47A730093062335
:1045200004AA21462846FDF759FA0028F4D19DF83F
:1045300010209DF8113043EA0223BB819DF8122020
:104540009DF8133043EA0223FB819DF814209DF867
:10455000153043EA02233B8207B0F0BDF0B587B0C7
:1045600005460F4643238DF80F300E78B4B24FF452
:104570007A73009301230DF10F0221462846FDF7BF
:104580006BF90028F2D14FF47A730093062304AA42
:1045900021462846FDF722FA0028F4D19DF8102084
:1045A0009DF8113043EA02237B829DF812209DF88A
:1045B000133043EA0223BB829DF814209DF8153086
:1045C00043EA0223FB8207B0F0BD000010B582B0C1
:1045D00000240094214B5A6C42F480425A645A6C75
:1045E00002F480420092009A01941A6C42F08052C8
:1045F0001A641B6C03F080530193019B0320FCF7AA
:104600001BFD224621466FF00B00FCF727FD2246DA
:1046100021466FF00A00FCF721FD224621466FF08B
:104620000900FCF71BFD224621466FF00400FCF751
:1046300015FD224621466FF00300FCF70FFD2246D0
:1046400021466FF00100FCF709FD224621464FF09C
:10465000FF30FCF703FD02B010BD00BF0038024080
:104660000268124B9A4200D0704700B587B04FF4F1
:1046700010730193122302930123039303230493E2
:10468000042305930DEB03010948FCF765FD0023A6
:104690000093084B1A6C42F400121A641B6C03F46A
:1046A00000130093009B07B05DF804FB005400402A
:1046B00000040240003802400268044B9A4200D0D5
:1046C0007047034B01221A60FAE700BF0028004040
:1046D0003C0E474282B00368104A934204D0B3F1C3
:1046E000804F0ED002B07047002300930C4B5A6CE1
:1046F00042F001025A645B6C03F001030093009BDB
:10470000F0E700230193064B1A6C42F001021A6491
:104710001B6C03F001030193019BE3E700000140E0
:104720000038024002680E4B9A4200D0704700B534
:1047300083B00021019103F50D331A6C42F002029F
:104740001A641B6C03F002030193019B0A461D20AF
:10475000FCF784FC1D20FCF7B5FC03B05DF804FBFE
:104760000004004070B586B00368184A934204D034
:10477000B3F1804F10D006B070BD4FF420630193A9
:10478000022302930022039204930123059301A9BB
:104790000F48FCF7E1FCEEE70823019302240294A2
:1047A0000026039604940125059501A90948FCF704
:1047B000D3FC4FF48063019302940396049405950F
:1047C00001A90548FCF7C8FCD5E700BF000001407F
:1047D0000010024000000240000402400268164B34
:1047E0009A4200D0704710B586B00024009403F5BB
:1047F000F8331A6C42F480221A641B6C03F4802391
:104800000093009B4FF44073019302230293012312
:104810000393032304930723059301A90748FCF797
:104820009BFC224621462720FCF718FC2720FCF79A
:1048300049FC06B010BD00BF00480040000C02401B
:1048400008B5FCF7D3FBFCF770FC08BD08B50248BF
:10485000FEF76BF908BD00BF0403002008B502484D
:10486000FEF75EFE08BD00BF400200200F49D1F8F0
:10487000883043F47003C1F888300D4B1A6842F059
:1048800001021A60002098601A6822F0847222F4F3
:1048900080321A60074A5A601A6822F480221A602D
:1048A000D8604FF000638B60704700BF00ED00E000
:1048B0000038024010300024DFF834D0002103E03B
:1048C0000C4B5B58435004310B480C4B42189A4236
:1048D000F6D30B4A02E0002342F8043B094B9A420C
:1048E000F9D3FFF7C3FF01F021FBFFF745FC704749
:1048F000000003206883000800000020E001002081
:10490000E001002068040020FEE700000000000035
:104910002DE9F84F55EC104BC94B25F000469E424F
:10492000AA4610DDC74B9E4200F3B58000F0B08070
:10493000BAF1000F40F3F980A5A1D1E9000141ECE3
:10494000100BBDE8F88FC04B9E4200F3C380A3F16B
:10495000DE739E4240F3A9804FF0FF3B22462B4678
:1049600020462946FBF700FE02460B468046894654
:10497000FBF7FAFD98A3D3E9002306460F46FBF7A1
:10498000F3FD97A3D3E90023FBF738FC32463B46FF
:10499000FBF7EAFD94A3D3E90023FBF72FFC324693
:1049A0003B46FBF7E1FD92A3D3E90023FBF726FC8E
:1049B00032463B46FBF7D8FD8FA3D3E90023FBF734
:1049C0001DFC32463B46FBF7CFFD8DA3D3E9002308
:1049D000FBF714FC42464B46FBF7C6FD8AA3D3E91E
:1049E00000238046894630463946FBF7BDFD88A343
:1049F000D3E90023FBF700FC32463B46FBF7B4FD4E
:104A000085A3D3E90023FBF7F7FB32463B46FBF7D0
:104A1000ABFD83A3D3E90023FBF7EEFB32463B4615
:104A2000FBF7A2FD80A3D3E90023FBF7E5FB3246A9
:104A30003B46FBF799FD02460B4640464946FBF7CD
:104A4000DDFB22462B46FBF78FFDBBF1FF3F024605
:104A50000B466ED07D4B7E4E4FEACB0B5B44D3E9C9
:104A60000023FBF7C9FB22462B46FBF7C5FBB344EB
:104A700002460B46DBE90001FBF7BEFBBAF1000F73
:104A80000FDA01F10043194641EC100BBDE8F88F35
:104A9000002C3FF44DAF22462B4620462946FBF71B
:104AA000ADFB41EC100BBDE8F88F61A3D3E9002307
:104AB00010EE100A2946FBF7A1FB0022654BFBF71D
:104AC000E3FF00283FF448AF2046294641EC100B95
:104AD000BDE8F88F00F0C8F85F4B9E4255EC104BD4
:104AE0002FDCA3F550239E4258DC10EE102A10EE66
:104AF000100A2B462946FBF781FB0022554BFBF79A
:104B00007BFB002206460F464FF080432046294695
:104B1000FBF774FB02460B4630463946FBF74EFE68
:104B20004FF0000B04460D4618E743A1D1E9000100
:104B3000B7E720462946FBF75FFB41EC100BBDE8C9
:104B4000F88F464B9E421DDC10EE100A0022444BAB
:104B50002946FBF751FB002206460F46404B2046F4
:104B60002946FBF701FD00223A4BFBF747FB0246C3
:104B70000B4630463946FBF721FE4FF0020B044648
:104B80000D46EBE62B4610EE102A00203549FBF7C8
:104B900015FE4FF0030B04460D46DFE610EE100A3B
:104BA00000222C4B2946FBF727FB002206460F4626
:104BB000284B20462946FBF721FB02460B46304690
:104BC0003946FBF7FBFD4FF0010B04460D46C5E6E9
:104BD000182D4454FB21F93F11DA22E33AAD903FFE
:104BE000EB0D76244B7BA93F513DD0A0660DB13F24
:104BF0006E204CC5CD45B73FFF8300922449C23F8C
:104C00000D5555555555D53F2F6C6A2C44B4A2BF50
:104C10009AFDDE522DDEAD3F6D9A74AFF2B0B33F18
:104C2000711623FEC671BC3FC4EB98999999C93F90
:104C30009C7500883CE4377E182D4454FB21F9BF55
:104C4000FFFF0F440000F07FFFFFDB3FB88000084C
:104C5000988000080000F03FFFFFF23FFF7F034015
:104C60000000F83F0000F0BF51EC100B10EE102ACE
:104C700021F0004343EC102B704700BF0000000000
:104C80002DE9F04F2DED028BDFF824A38BB057EC0C
:104C9000106B55EC114B00F0EBF99AF90080B0EE77
:104CA000408AF0EE608AB8F1FF3F33D022462B46AF
:104CB00020462946FBF7F2FE834658BB32463B4668
:104CC00030463946FBF7EAFE8146002866D1304679
:104CD000394600220023FBF7AFFE20B30022002359
:104CE00020462946FBF7A8FE834600287DD09FED8D
:104CF000A67B0122AA4BCDF820900092CDE9026755
:104D0000CDE904458DED067B0193B8F1000F5ED02F
:104D10009FED9F8BB0EE480AF0EE680A0BB0BDEC39
:104D2000028BBDE8F08FB0EE480AF0EE680A00F0A2
:104D3000C5FF8046002800F082804FF000084FF049
:104D4000000951EC180B42464B46FBF775FE002854
:104D5000E0D047EC106B00F0B1FF0028DAD045EC52
:104D6000104B00F0ABFF0028D4D09AF900308C4AE9
:104D7000019204210022022BCDE90267CDE904450E
:104D8000CDE906890091089203D0684600F09EFFA5
:104D900010BB01F0C5F8222303601DE000220023B0
:104DA00020462946FBF748FE0028B3D09FED788BBC
:104DB00001227B4BCDF820B0B8F1020F0092CDE973
:104DC0000267CDE904458DED068B0193A2D06846BC
:104DD00000F07CFF002878D0089B1BB101F0A0F800
:104DE000089B03609DED068B94E745EC104B00F0AB
:104DF00065FF00288ED00022002320462946FBF7BD
:104E000025FE002886D0664A9AF90030CDF820B0F9
:104E10000121CDE90267CDE90445CDE90012002B5F
:104E200058D060490020022BCDE9060156D101F08F
:104E300077F821230360089B002BD3D0CEE747EC03
:104E4000106B00F03BFF00283FF477AF45EC104BB0
:104E500000F034FF00283FF470AF53EC182B18EE2D
:104E6000100A1946FBF71AFE9AF9009000286FD134
:104E70000323DFF82CC10890294620460093002226
:104E8000494BCDF804C0CDE90445CDE90267FBF7F5
:104E90006BFB04460D46B9F1000F25D1DFF81491E4
:104EA0004FF060480022002330463946CDE906899C
:104EB000FBF7CCFD38BB684600F008FF0028BAD1EC
:104EC00001F02EF822230360B5E701F029F8212331
:104ED000036081E79FED2C7B8DED067B684600F03B
:104EE000F5FE0028A7D1A2E79FED2B7B002200232F
:104EF000304639468DED067BFBF7A8FDB0B9B9F118
:104F0000020FDDD0D7E745EC104B00F0E9FE22465A
:104F10002B4651EC100BFBF78FFDB0B9234B9AF9E0
:104F200000904FF06042CDE90623E8E745EC104BD6
:104F300000F0D6FE22462B4651EC100BFBF77CFD11
:104F400018B9184B0022CDE906239AF90090D6E74C
:104F50000122134BCDF820800092CDE90267CDE904
:104F600004450193B9F1000FB4D00022002310468C
:104F70001946FBF723FCB9F1020FCDE906013FF416
:104F800056AFABE7AFF30080000000000000000068
:104F9000000000000000F03F000000000000F07F73
:104FA000D88000080000F0FF0000E03FFFFFEFC7DF
:104FB0000C000020FFFFEF472DE9F0432DED028BA1
:104FC0008BB055EC104B00F0AFFD274BB0EE408A94
:104FD000F0EE608A93F90060731C12D022462B46D3
:104FE00020462946FBF75AFD074650B94FF0000806
:104FF0004FF000092046294642464B46FBF726FD66
:1050000040B9B0EE480AF0EE680A0BB0BDEC028B76
:10501000BDE8F0830122154B08970092CDE90445C5
:10502000CDE90245019396B142464B46404649467A
:10503000FBF7C4FB022ECDE906010AD100F070FF98
:1050400021230360089B53B99DED068BD9E7CDE979
:105050000689684600F03AFE0028F3D1EEE700F03A
:105060005FFF089B0360EFE70C000020DC80000876
:105070002DE9F04F51EC110B21F0004555EA0003EA
:1050800093B010D059EC108B6D4B29F000449C422A
:105090004E4610EE10AA0DDD04F1404404F58014D4
:1050A00054EA0A0356D16749002041EC100B13B0B3
:1050B000BDE8F08F0F4611EE10CA48D09D42EBDCE0
:1050C0005F4B9D425FD0002ECDE900015FDB4FF0CA
:1050D000000BBCF1000F0ED1594B9D4243D0594BF0
:1050E0009D4200F08C80B7F1804F00F09E80564BBF
:1050F0009F4200F0B88349EC108BFFF7B5FD51ECEF
:10510000100BBAF1000F06D1002C5AD04D4B26F0EF
:1051100040429A4255D0F60F06F1FF3A5BEA0A0385
:1051200073D04A4B9D4240F3998003F104739D4232
:1051300040F33884464B9C4272DD002F72DD3EA363
:10514000D3E9002310461946FBF70EFAADE7B8F194
:10515000000F05D03F4813B0BDE8F04F00F0B8BDD8
:10516000A542F7DCACE704F1404303F5801353EAB2
:105170000A0398D0364B9C4240F37F83002F51DBCB
:10518000DDE9000191E7BCF1000F9CD084E7324BD0
:105190009D4231DCA3F154739D4298DD2B15A3F29F
:1051A000FF33142B40F3A183C3F134032CFA03F231
:1051B00002FA03F363458AD102F00102C2F1020B45
:1051C00087E7002F05DA02460B4600201D49FBF752
:1051D000F5FA002EBFF669AF04F1404404F58014DF
:1051E00054EA0B0300F03A84BBF1010F7FF45DAF8A
:1051F00001F10043194658E74FF0020B69E7002F11
:10520000C0F24483404649464FE742464B4610466B
:105210001946FAF7F1FF02460B46FBF7CFFA44E7CF
:10522000002F8CDB002000213FE742464B464046E2
:105230004946FBF799F938E79C7500883CE4377ECE
:105240000000F07F0000F03F0000E03F0000E04180
:10525000FFFFEF3F90800008FFFF3F43B4F5801F42
:1052600080F260830022D04BFBF77EF96FF03406AA
:105270000C462315CD4AC4F31304A3F2FF3344F0C4
:105280007F559E1994420D9645F4401540F33D8399
:10529000C74B9C4240F301849FEDAD7B8DED087BB5
:1052A0008DED107B9FEDAC7B8DED067B01360D9671
:1052B000A5F580154FF00008DDE9062329460646CE
:1052C000FAF79AFFDDE90623CDE90A0130462946BF
:1052D000FAF794FF02460B460020B649FBF76EFA38
:1052E00003460C46CDE90E3402460B46DDE90A01C1
:1052F000FBF73AF96B1043F0005303F500230A461D
:105300002F46014603EB08050023CDE90212029364
:10531000DDE902890024CDE904122B4622464046ED
:105320004946FBF721F902460B46DDE90A01FAF787
:1053300063FFDDE90623CDE90A0120462946FAF795
:105340005BFF02460B4630463946FAF755FF4246A8
:105350004B46FBF709F902460B46DDE90A01FAF76D
:105360004BFFDDE90E23FBF7FFF8DDE90445CDE94E
:10537000060122462B4620462946FBF7F5F878A37E
:10538000D3E9002304460D46FBF7EEF876A3D3E9F4
:105390000023FAF733FF22462B46FBF7E5F874A308
:1053A000D3E90023FAF72AFF22462B46FBF7DCF865
:1053B00071A3D3E90023FAF721FF22462B46FBF71E
:1053C000D3F86FA3D3E90023FAF718FF22462B4640
:1053D000FBF7CAF86CA3D3E90023FAF70FFF2246C4
:1053E00006460F462B4620462946FBF7BDF80246E7
:1053F0000B4630463946FBF7B7F8424604460D46A1
:105400004B46DDE90401FAF7F9FEDDE90623FBF777
:10541000ABF822462B46FAF7F1FE424606460F4607
:105420004B4640464946FBF79FF80022624BCDE9C8
:105430000A01FAF7E3FE32463B46FAF7DFFE02982E
:105440000D46044622462B4640464946FBF78CF85B
:10545000002280468946584B20462946FAF7CCFE62
:10546000DDE90A23FAF7C8FE02460B463046394604
:10547000FAF7C2FEDDE90423FBF776F8224606467A
:105480000F462B46DDE90601FBF76EF802460B4698
:1054900030463946FAF7B2FE06460F4602460B463C
:1054A00040464946FAF7AAFE029839A3D3E90023F9
:1054B00004460D46FBF758F84246CDE904014B4639
:1054C00020462946FAF798FE02460B4630463946F2
:1054D000FAF792FE30A3D3E90023FBF745F830A397
:1054E000D3E9002306460F4620462946FBF73CF841
:1054F00002460B4630463946FAF780FEDDE91023B6
:10550000FAF77CFE06460D980F46FAF7C3FF3246BF
:10551000804689463B46DDE90401FAF76FFEDDE986
:105520000823FAF76BFE42464B46FAF767FE0298ED
:1055300042464B4604460D46FAF75EFEDDE9082377
:10554000FAF75AFEDDE9042338E000BFAFF300802C
:105550000000000000000000000000000000F03F1C
:10556000EF4E454A287ECA3F65DBC9934A86CD3F48
:1055700001411DA96074D13F4D268F515555D53F2E
:10558000FFAB6FDBB66DDB3F033333333333E33FC6
:10559000000000E009C7EE3FFD033ADC09C7EE3F1B
:1055A000F5015B14E02F3EBE000040438E980300DF
:1055B00079B60B000000F03F00000840FAF71CFE2F
:1055C0000B46024639463046FAF716FE0BF1FF331A
:1055D00053EA0A03CDE9040100F05F819FEDD27B1D
:1055E0008DED027BDDE900AB002356465F46CDE939
:1055F00000670093DDE90067504632463B46594656
:10560000FAF7FAFD22462B46FAF7AEFF52468046DD
:1056100089465B46DDE90401FAF7A6FF02460B4620
:1056200040464946FAF7EAFD3246804689463B46FF
:1056300020462946CDE90489FAF796FF0B46024633
:1056400006460F4640464946FAF7D8FDD04B9942E8
:1056500004460D468A4640F3258101F13F4303F598
:10566000E003034340F0FE81B1A3D3E90023DDE969
:105670000401FAF7C3FD3246804689463B46204680
:105680002946FAF7B9FD02460B4640464946FBF764
:10569000FBF9002840F0E681A8464FEA2853A3F220
:1056A000FE324FF4801313415344C3F30A52B94DF1
:1056B000A2F2FF321541C3F3130423EA05010020CF
:1056C000C2F1140B44F48014BAF1000F02460B46E9
:1056D00044FA0BFB30463946B8BFCBF1000BFAF762
:1056E0008BFD06460F463246DDE904013B46FAF7DC
:1056F00085FD4FEA0B5A0D4600248FA3D3E9002302
:1057000020462946FAF730FF3246804689463B4616
:1057100020462946FAF770FD02460B46DDE90401F2
:10572000FAF76AFD86A3D3E90023FAF71DFF86A3E3
:10573000D3E9002306460F4620462946FAF714FF10
:1057400002460B4630463946FAF758FD06460F46E4
:1057500002460B4640464946FAF750FD42464B4644
:1057600004460D46FAF748FD02460B4630463946D8
:10577000FAF742FD2246804689462B4620462946B6
:10578000FAF7F2FE72A3D3E9002306460F46FAF7B2
:10579000EBFE71A3D3E90023FAF72EFD32463B4618
:1057A000FAF7E2FE6EA3D3E90023FAF727FD3246AB
:1057B0003B46FAF7D9FE6CA3D3E90023FAF71CFDA8
:1057C00032463B46FAF7D0FE69A3D3E90023FAF745
:1057D00015FD32463B46FAF7C7FE02460B46204609
:1057E0002946FAF709FD06460F4602460B462046B3
:1057F0002946FAF7B9FE0022CDE900014FF08043B7
:1058000030463946FAF7F8FC02460B46DDE900015E
:10581000FAF7D4FF424606460F464B462046294635
:10582000FAF7A2FE42464B46FAF7E8FC02460B4660
:1058300030463946FAF7E0FC22462B46FAF7DCFC04
:1058400002460B4600205449FAF7D6FC8A44BAF5C2
:10585000801F02460B46C0F230815146DDE902232B
:10586000FAF782FE21E4002EFFF645AC49EC108BDE
:1058700013B0BDE8F04F00F057B9002FBFF6D2AC1F
:10588000DDE90034184604F100410EE442464B467F
:1058900000204149FAF792FF07E49FED377B8DED39
:1058A000027B9FE63D4B21F00048984540F3E8809D
:1058B0003B4B0B4403430AD132463B46FAF79CFC70
:1058C000DDE90423FBF7D6F800283FF4E6AEDDE976
:1058D00002012BA3D3E90023FAF746FE28A3D3E95C
:1058E0000023FAF741FEFFF7E0BBBCF1000F40F0E8
:1058F000D080C3F1140345FA03F202FA03F3AB427A
:1059000000F0E380E346FFF7EABB9FED1F7B8DEDE0
:10591000087B8DED107B9FED047B4FF000088DED33
:10592000067BC9E40026A4E4000000000000F03F6C
:10593000FE822B654715973C00000000432EE63F92
:10594000EF39FAFE422EE63F396CA80C615C20BEAE
:10595000D0A4BE726937663EF16BD2C541BDBB3E75
:105960002CDE25AF6A56113F93BDBE166CC1663F53
:105970003E5555555555C53F000000000000F0BF8D
:1059800059F3F8C21F6EA5010000000000000000DE
:10599000FFFF8F40FFFF0F000000F03FFFCB904064
:1059A00000346F3F5C4B9C427FF73AAC5B4B9C42B0
:1059B0003FF7C3AB0022594BFAF71EFC46A3D3E9CD
:1059C000002304460D46FAF7CFFD45A3D3E9002393
:1059D0008046894620462946FAF7C6FD0022CDE9D1
:1059E00002014F4B20462946FAF7BEFD02460B4600
:1059F0003DA1D1E90001FAF7FFFB22462B46FAF759
:105A0000B3FD02460B4600204649FAF7F5FB224655
:105A100006460F462B4620462946FAF7A5FD0246C4
:105A20000B4630463946FAF79FFD31A3D3E90023F0
:105A3000FAF79AFD02460B46DDE90201FAF7DCFBB4
:105A400002460B4606460F4640464946FAF7D6FB45
:105A5000002004460D4642464B46AFE502460B4643
:105A6000FFF7D5BBDDE9020123A3D3E90023FAF751
:105A70007BFD21A3D3E90023FAF776FDFFF715BBE1
:105A8000284B98453FF709AEDDE90023924693463F
:105A900032E64FF0000BFFF72EBB9FED197B8DED2B
:105AA000087B9FED197B8DED107B9FED197B4FF4EB
:105AB00080288DED067BFFF7FFBB584643EC102B8B
:105AC00000F096F951EC100BC8E602F00102C2F1A9
:105AD000020BFFF704BB00BF000000604715F73F53
