:020000040800F2
:1000000000000320CD3100081D3200081D32000819
:100010001D3200081D3200081D32000800000000DB
:100020000000000000000000000000001D32000879
:100030001D320008000000001D3200086531000874
:100040001D3200081D3200081D3200081D32000854
:100050001D3200081D3200081D3200081D32000844
:100060001D3200081D3200081D3200081D32000834
:100070001D3200081D3200081D3200081D32000824
:100080001D3200081D3200081D3200081D32000814
:100090001D3200081D3200081D3200081D32000804
:1000A0001D3200081D3200081D3200081D320008F4
:1000B0001D3200081D3200081D3200081D320008E4
:1000C0001D3200081D3200081D3200081D320008D4
:1000D0001D3200081D3200081D3200087131000871
:1000E0001D3200081D3200081D3200081D320008B4
:1000F0001D3200081D3200081D3200081D320008A4
:100100001D3200081D3200081D3200081D32000893
:100110001D3200081D3200081D3200081D32000883
:100120001D3200081D3200081D3200081D32000873
:100130001D3200081D3200081D3200081D32000863
:100140001D3200081D3200081D3200081D32000853
:100150001D3200081D3200081D3200081D32000843
:100160001D3200081D3200081D3200081D32000833
:100170001D3200081D3200081D320008000000007A
:100180001D3200081D3200081D3200081D32000813
:100190001D3200081D3200081D3200081D32000803
:0C01A0001D3200081D3200081D3200084E
:1001B00010B5054C237833B9044B13B10448AFF3A1
:1001C00000800123237010BD70000020000000009B
:1001D0009C3A000808B5034B1BB103490348AFF331
:1001E000008008BD00000000740000209C3A000858
:1001F00053B94AB9002908BF00281CBF4FF0FF318E
:100200004FF0FF3000F072B9ADF1080C6DE904CE8B
:1002100000F006F8DDF804E0DDE9022304B07047E1
:100220002DE9F047089E04468846002B4BD18A42B0
:10023000154667D9B2FA82F24AB1C2F1200701FA33
:1002400002F320FA07F7954047EA030894404FEA83
:10025000154E230CB8FBFEF71FFA85FC0EFB178822
:1002600043EA084307FB0CF1994209D9EB1807F15F
:10027000FF3080F01B81994240F21881023F2B44ED
:100280005B1AA4B2B3FBFEF00EFB103344EA034446
:1002900000FB0CFCA44509D92C1900F1FF3380F0B8
:1002A0000781A44540F2048102382C4440EA07400B
:1002B000A4EB0C0400271EB1D4400023C6E9004380
:1002C0003946BDE8F0878B4209D9002E00F0EB805B
:1002D0000027C6E9000138463946BDE8F087B3FA81
:1002E00083F7002F47D18B4202D3824200F2FA807B
:1002F000841A61EB030301209846002EE0D0C6E982
:100300000048DDE702B9FFDEB2FA82F2002A40F0CF
:100310008F80491B4FEA154E1FFA85F80127B1FB64
:10032000FEFC230C0EFB1C1143EA014308FB0CF1FD
:10033000994207D9EB180CF1FF3002D2994200F232
:10034000CD808446591AA3B2B1FBFEF00EFB101407
:1003500043EA044408FB00F8A04507D92C1900F132
:10036000FF3302D2A04500F2B6801846A4EB080481
:1003700040EA0C409FE7C7F1200CBB4022FA0CFE7C
:100380004EEA030E01FA07F420FA0CF521FA0CF3F9
:100390004FEA1E482543B3FBF8F92C0C08FB193330
:1003A0001FFA8EFA44EA034309FB0AF49C4202FA5C
:1003B00007F200FA07F10BD91EEB030309F1FF3036
:1003C00080F087809C4240F28480A9F10209734446
:1003D0001B1BADB2B3FBF8F008FB103345EA034436
:1003E00000FB0AFAA24508D91EEB040400F1FF3312
:1003F0006BD2A24569D90238744440EA0940A0FB97
:100400000289A4EB0A044C45C2464B4654D351D052
:10041000002E69D0B1EB0A0564EB030404FA0CFC6E
:10042000FD40FC404CEA0505C6E90054002747E7BB
:10043000C2F1200320FA03F7954001FA02F021FAF5
:1004400003F34FEA154E3843010CB3FBFEF71FFAD6
:1004500085F80EFB173341EA034107FB08F38B4293
:1004600004FA02F407D9691807F1FF3C2FD28B4236
:100470002DD9023F2944CB1A81B2B3FBFEF00EFB0B
:10048000103341EA034100FB08F38B4207D9691896
:1004900000F1FF3C17D28B4215D902382944C91A02
:1004A00040EA07473BE73746304609E70746E7E6B5
:1004B0001846FBE64145ABD2B8EB020A69EB0E02E7
:1004C00001381346A4E76046E9E7184695E7674612
:1004D000D1E781467CE702382C4447E7ACF1020CB7
:1004E0002B442FE7384608E73746E9E6704700BF58
:1004F000034613F8012B002AFBD1181A0138704764
:1005000001F0FF01102A2BDB10F0070F08D010F8C4
:10051000013B013A8B422DD010F0070F42B3F6D1C8
:10052000F0B441EA012141EA014122F007047FF0E1
:1005300000070023F0E80256083C85EA010586EA38
:10054000010685FA47F5A3FA87F586FA47F6A5FA74
:1005500087F68EB9EED1F0BC01F0FF0102F0070280
:1005600032B110F8013B013A83EA010313B1F8D12B
:100570000020704701387047002D06BF354603380C
:10058000073815F0010F07D1013015F4807F02BF45
:10059000013015F4C03F0130F0BC0138704700BF96
:1005A00010B504460E4B18784FF47A73B3FBF0F392
:1005B0000C4A1068B0FBF3F000F0A8F868B90F2CF3
:1005C00001D901200AE0002221464FF0FF3000F05F
:1005D0005DF8034B5C60002000E0012010BD00BF0F
:1005E000000000200800002008B50B4B1A6842F4F8
:1005F00000721A601A6842F480621A601A6842F443
:1006000080721A60032000F02FF80020FFF7C8FF67
:1006100002F09CFC002008BD003C0240034A116827
:10062000034B1B780B441360704700BF98000020F9
:1006300000000020014B1868704700BF98000020A0
:1006400038B50446FFF7F6FF0546B4F1FF3F02D088
:10065000044B1B781C44FFF7EDFF401BA042FAD36C
:1006600038BD00BF00000020074AD36823F4E063D0
:100670001B041B0C000200F4E060184340F0BF6054
:1006800040F40030D060704700ED00E030B4174B0C
:10069000DB68C3F30223C3F10704042C28BF04243E
:1006A0001D1D062D18D9033B4FF0FF3505FA04F444
:1006B00021EA0401994005FA03F322EA03031943EE
:1006C00000280BDB0901C9B200F1604000F5614070
:1006D00080F8001330BC70470023E5E700F00F00FE
:1006E0000901C9B2024B1954F4E700BF00ED00E064
:1006F00014ED00E000F01F02400901239340024A7C
:1007000042F82030704700BF00E100E00138B0F14E
:10071000807F0AD2064B5860064AF02182F82310E7
:100720000020986007221A6070470120704700BFC0
:1007300010E000E000ED00E0042805D0054A136851
:1007400023F0040313607047024A136843F0040364
:100750001360704710E000E0704708B5FFF7FCFF3A
:1007600008BD90F83530DBB2022B03D080234365FF
:1007700001207047052380F835300268136823F0A4
:10078000010313600020704700230F2B00F2E38069
:10079000F0B482B039E0092200E00022B2403A43CE
:1007A00002346D4E46F824206C4A1468EA4302EA8B
:1007B00004064F6817F4803F01D045EA0406674CF1
:1007C0002660646802EA04064F6817F4003F01D00F
:1007D00045EA0406614C6660A46802EA04064F68B4
:1007E00017F4801F01D045EA04065C4CA660E4685B
:1007F00022404E6816F4001F01D045EA0402574C0F
:10080000E26001330F2B00F2A38001229A400C68B2
:1008100004EA0205AA42F4D14C68022C01D0122C41
:1008200010D1DE08083650F826C003F00704A700F0
:100830000F24BC402CEA040C0C69BC4044EA0C04B4
:1008400040F8264004685F000326BE40F64306EAEF
:10085000040C4C6804F00304BC4044EA0C0404603B
:100860004C6804F1FF3CBCF1010F03D9112C01D0FD
:10087000122C10D1846806EA040CCC68BC4044EA0F
:100880000C048460446824EA02024C68C4F3001437
:100890009C4014434460C26816408A68BA403243A0
:1008A000C2604A6812F0805FABD0002201922C4AED
:1008B000546C44F480445464526C02F480420192BB
:1008C000019A9C08A61C244A52F8267003F00302E1
:1008D00096000F22B24027EA0207224A90423FF4D4
:1008E0005CAF02F58062904222D002F580629042B5
:1008F00020D002F5806290421ED002F580629042C4
:100900001CD002F5806290421AD002F580629042BB
:1009100018D002F58062904216D002F580629042B3
:1009200014D002F5806290423FF435AF0A2235E7D9
:10093000012233E7022231E703222FE704222DE7C9
:1009400005222BE7062229E7072227E7082225E7C9
:1009500002B0F0BC7047704700380140003C0140D5
:10096000003802400000024012B90904816170475A
:100970008161704703685A6912F4806F0DD06FF47B
:1009800080625A610423036400230363202280F8F9
:100990003D2080F83C300120704700207047F8B5BA
:1009A00006460C4617461D461EE02DB1FFF742FED7
:1009B000069BC01AA84217D900233363202286F869
:1009C0003D2086F83E3086F83C3003201AE033683C
:1009D0005B6924EA03039BB2B3FA83F35B099F428A
:1009E0000FD1B5F1FF3FE0D1C4F30743012BEED0A7
:1009F00033689B6924EA03039BB2B3FA83F35B0970
:100A0000EDE70020F8BDF8B504460D4616461F4632
:100A100032E01A6842F400721A6023686FF4806250
:100A20005A610423236400232363202284F83D2099
:100A300084F83C3001202DE026B1FFF7FBFDC01B00
:100A4000B04219D900232363202284F83D2084F882
:100A50003C3003201EE023685B6925EA03039BB258
:100A6000003318BF0123A3B123685A6912F4806FC1
:100A7000CFD1B6F1FF3FDFD1C5F30743012BEAD059
:100A800023689B6925EA03039BB2003318BF012347
:100A9000E9E70020F8BD0000F0B583B004460D463C
:100AA00016461F46C36A042B0DD0012B0BD013F53D
:100AB000803F08D0036B122B0AD10268136843F4FD
:100AC0008073136004E02268136843F4807313603A
:100AD0000097334600224FF001112046FFF75FFFD9
:100AE00058BB2369B3F5804F10D1236805F0FE058C
:100AF0001D613B46324615492046FFF784FF0346F9
:100B0000E0B1236C042B1ED1012317E0EB11226806
:100B100003F0060343F0F00313613B4632460C49F1
:100B20002046FFF770FF20B1236C042B09D101236D
:100B300004E02368EDB21D61DBE70323184603B030
:100B4000F0BD0323FAE70323F8E700BF020001002A
:100B5000080001002DE9F04184B004460D46164618
:100B60001F46C26A01680B6843F480630B60042A65
:100B70000DD0012A0BD012F5803F08D0036B112B4A
:100B80000AD10268136843F48073136004E022689A
:100B9000136843F4807313600097334600224FF0CC
:100BA00001112046FFF7FBFE002852D12369B3F55F
:100BB000804F12D1236845F00105EDB21D613B461F
:100BC00032462A492046FFF71EFF0346002841D03F
:100BD000236C042B48D101233CE04FEAE51808F0D0
:100BE0000608236848F0F0021A613B463246204965
:100BF0002046FFF708FF20B1236C042B2ED10123E0
:100C000028E02368EDB21D613B4632461749204675
:100C1000FFF7F9FE20B1236C042B21D1012319E049
:100C200000220392236859690391996903910399FA
:100C3000196841F480711960009733464FF0011133
:100C40002046FFF7ACFE68B9226848F0F103136153
:100C5000B5E70323184604B0BDE8F0810323F9E7A4
:100C60000323F7E70323F5E70323F3E7020001007B
:100C70000800010070B504460D46164623685B69FE
:100C800013F0800F19D12046FFF774FEB8B9B5F103
:100C9000FF3FF3D025B1FFF7CDFC801BA842EDD973
:100CA000236C43F02003236400232363202284F871
:100CB0003D2084F83C30032000E0002070BD01207E
:100CC000FCE770B504460D46164623685B6913F0D1
:100CD000040F19D12046FFF74DFEB8B9B5F1FF3F1B
:100CE000F3D025B1FFF7A6FC801BA842EDD9236CF9
:100CF00043F02003236400232363202284F83D2053
:100D000084F83C30032000E0002070BD0120FCE7A7
:100D100070B505460C4616462B685A6912F0400F0E
:100D200022D15A6912F0100F11D124B1FFF782FCC1
:100D3000801BA042F0D92B6C43F020032B642023AE
:100D400085F83D30002385F83C30032070BD6FF0FE
:100D500010025A6100232B642B63202285F83D206A
:100D600085F83C300120F1E70020EFE7002800F093
:100D7000828010B5044690F83D30002B41D02423EA
:100D800084F83D302268136823F00103136000F0FB
:100D9000A1FE3A4BA3FB00239B0C226853606168C1
:100DA000374A914232D80133226813626368344A69
:100DB000934235D85B00B0FBF3F0C0F30B03032B79
:100DC00000D804202368D861E369216A22680B43B4
:100DD00013602369E16822680B4393606369A1692A
:100DE00022680B43D3602268136843F00103136049
:100DF00000202064202384F83D30206384F83E00E6
:100E000010BD80F83C3002F0EBF8B8E74FF4967272
:100E100002FB03F31B4AA2FB03239B090133C3E735
:100E2000A16889B903EB4302B0FBF2F2C2F30B02F3
:100E3000B2FA82F25209E2B991B903EB4303B0FB73
:100E4000F3F040F40040BDE703EB830202EB8202C3
:100E5000B0FBF2F2C2F30B02B2FA82F25209EAE7F5
:100E600003EB830303EB8303B0FBF3F040F4404058
:100E7000A8E70120A6E70120704700BF83DE1B43DF
:100E8000A0860100D34D62102DE9F04184B00446E4
:100E90000E4690461F46FFF7CDFB94F83D30DBB27F
:100EA000202B04D00226304604B0BDE8F081054670
:100EB00000901923012254492046FFF770FD0028B5
:100EC00040F0998094F83C30012B00F0968001238B
:100ED00084F83C3023681A6812F0010F03D11A68B5
:100EE00042F001021A602268136823F40063136061
:100EF000212384F83D30102384F83E3000232364FE
:100F0000C4F824806785A3F58033E362638D23856D
:100F10002B460A9A31462046FFF7BEFD064660B1D1
:100F2000236C042B04D1002384F83C300126BAE75B
:100F3000002384F83C300326B5E70023039323689D
:100F40005A6903929B690393039B10E0236C042B63
:100F500055D12268136843F4007313600126A2E799
:100F60002A460A992046FFF7ACFE00282BD1238D94
:100F7000002B32D02A460A992046FFF77BFE002834
:100F8000E4D1636A5A1C626222681B781361638D24
:100F9000013B9BB26385238D013B9BB22385226875
:100FA000516911F0040FDBD0002BD9D0636A591CB2
:100FB00061621B781361638D013B9BB26385238D56
:100FC000013B2385CCE7236C042B1AD122681368DC
:100FD00043F400731360012665E72268136843F445
:100FE00000731360202384F83D30002384F83E30E2
:100FF00084F83C3057E7022655E7022653E70326DC
:1010000051E703264FE700BF020010002DE9F04131
:1010100086B004460E4690461F46FFF70BFB94F839
:101020003D30DBB2202B04D00226304606B0BDE8AE
:10103000F08105460090192301228C492046FFF7D4
:10104000AEFC002840F04B8194F83C30012B00F0BE
:101050004881012384F83C3023681A6812F0010F9C
:1010600003D11A6842F001021A602268136823F45F
:1010700000631360222384F83D30102384F83E304F
:1010800000232364C4F824806785A3F58033E362DA
:10109000638D23852B460C9A31462046FFF75AFD77
:1010A000064660B1236C042B04D1002384F83C3045
:1010B0000126BAE7002384F83C300326B5E7238DE8
:1010C0005BB9029323685A6902929A690292029A62
:1010D0001A6842F400721A607AE0012B0FD0022BDA
:1010E0001FD02268136843F48063136000230593C4
:1010F00023685A6905929B690593059B68E02268FD
:10110000136823F4806313600023039323685A69F0
:1011100003929A690392039A1A6842F400721A6061
:1011200056E02268136823F4806313602268136812
:1011300043F4006313600023049323685A69049204
:101140009B690493049B43E02A460C992046FFF7D1
:10115000DFFD68B923681A69636A591C61621A70F5
:10116000238D013B2385638D013B9BB263852FE07B
:10117000236C202B01D0012657E7032655E7009565
:101180000C9B00223A492046FFF709FC002840F05A
:10119000AA802268136843F40073136023681A69F5
:1011A000636A591C61621A70238D013B2385638D2C
:1011B000013B9BB2638523681A69636A591C6162AB
:1011C0001A70238D013B2385638D013B9BB26385A0
:1011D000238D002B7AD0032B4CD8012BB4D0022BBB
:1011E000CDD000950C9B002221492046FFF7D7FB6C
:1011F00000287AD12268136823F48063136023687F
:101200001A69636A591C61621A70238D013B238538
:10121000638D013B9BB2638500950C9B00221449B2
:101220002046FFF7BCFB002861D12268136843F415
:101230000073136023681A69636A591C61621A702B
:10124000238D013B2385638D013B9BB2638523681E
:101250001A69636A591C61621A70238D013B2385E8
:10126000638D013B9BB26385B2E700BF02001000B3
:10127000040001002A460C992046FFF749FDF0B909
:1012800023681A69636A591C61621A70238D013BD5
:101290002385638D013B9BB2638523685A6912F0F5
:1012A000040F95D01A69636A591C61621A70238D04
:1012B000013B2385638D013B9BB2638588E7236CEB
:1012C000202B01D00126B0E60326AEE6202384F8C9
:1012D0003D30002384F83E3084F83C30A5E60226F9
:1012E000A3E60226A1E603269FE603269DE6032643
:1012F0009BE600BF2DE9F04385B004468846914641
:101300001D46FFF797F994F83D30DBB2202B04D04F
:101310000223184605B0BDE8F08306460090192365
:10132000012256492046FFF73AFB002840F09B80F7
:1013300094F83C30012B00F09880012384F83C3075
:1013400023681A6812F0010F03D11A6842F00102F3
:101350001A602268136823F400631360242384F85E
:101360003D3000232364A3F58033E362012735E099
:10137000A02384F83D3022685369C3F340035269C7
:10138000C2F3802294F83D10C9B253B94AB9A029DA
:1013900007D0002DECD0FFF74DF9801BA842EAD909
:1013A000E6E7202384F83D3023685A6912F0020FE3
:1013B00035D11A6842F400721A6023686FF48062B3
:1013C0005A610096192301222C492046FFF7E7FABB
:1013D000002850D17B1C4F453DD21F462268136820
:1013E00043F48073136000962B4600224FF00111E6
:1013F0002046FFF7D4FA002839D1236808F0FE020E
:101400001A61FFF717F9064622685369C3F34003D0
:101410005269C2F3802294F83D10C9B2B5E71A6848
:1014200042F400721A600023039323685A690392FE
:101430009B690393039B0096192301220F492046C1
:10144000FFF7ADFA0346A0B9202284F83D20002220
:1014500084F83C205DE7202384F83D30002384F8A5
:101460003C30012355E7022353E7022351E70323CE
:101470004FE703234DE703234BE700BF02001000B3
:1014800010B582B000230193194B1A6C42F08052C0
:101490001A641B6C03F080530193019B154B0122CE
:1014A0001A60FFF7C7F80446134B5B6813F4803FDC
:1014B00008D1FFF7BFF8001BB0F57A7FF4D90320FD
:1014C00002B010BD0D4B01221A60FFF7B3F80446BD
:1014D000094B5B6813F4003F07D1FFF7ABF8001B23
:1014E000B0F57A7FF4D90320EAE70020E8E700BFEF
:1014F0000038024040000E420070004044000E429E
:10150000002800F0BB8170B582B00446036813F078
:10151000010F3BD0A74B9B6803F00C03042B2CD08E
:10152000A44B9B6803F00C03082B21D06368B3F530
:10153000803F4FD0B3F5A02F52D09E4B1A6822F4B3
:1015400080321A601A6822F480221A606368002BC5
:1015500050D0FFF76FF80546964B1B6813F4003F19
:1015600014D1FFF767F8401B6428F5D903208AE1FE
:10157000904B5B6813F4800FD8D08E4B1B6813F42C
:10158000003F03D06368002B00F07A81236813F0DA
:10159000020F55D0874B9B6813F00C0F3ED0854B44
:1015A0009B6803F00C03082B33D0E368002B68D052
:1015B000814B01221A60FFF73DF805467D4B1B6801
:1015C00013F0020F54D1FFF735F8401B0228F5D96C
:1015D000032058E1774A136843F480331360B5E77A
:1015E000744B1A6842F480221A601A6842F48032FE
:1015F0001A60ABE7FFF71EF805466E4B1B6813F445
:10160000003FC3D0FFF716F8401B6428F5D903202C
:1016100039E1684B5B6813F4800FC6D1654B1B68DA
:1016200013F0020F04D0E368012B01D001202AE15E
:10163000604A136823F0F803216943EAC103136089
:10164000236813F0080F40D0636963B35B4B01223A
:101650001A60FEF7EFFF0546564B5B6F13F0020F63
:1016600033D1FEF7E7FF401B0228F5D903200AE13A
:10167000504A136823F0F803216943EAC103136059
:10168000DEE74D4B00221A60FEF7D4FF0546494BBA
:101690001B6813F0020FD3D0FEF7CCFF401B0228CB
:1016A000F5D90320EFE0454B00221A60FEF7C2FF98
:1016B0000546404B5B6F13F0020F06D0FEF7BAFFF2
:1016C000401B0228F5D90320DDE0236813F0040F46
:1016D00079D0384B1B6C13F0805F33D1002301931A
:1016E000344B1A6C42F080521A641B6C03F0805326
:1016F0000193019B0125324B1B6813F4807F23D09B
:10170000A368012B34D0052B38D02A4B1A6F22F056
:1017100001021A671A6F22F004021A67A368002BED
:1017200036D0FEF787FF0646224B1B6F13F0020FE1
:1017300048D1FEF77FFF801B41F288339842F3D9EE
:101740000320A0E00025D6E71D4A136843F4807308
:101750001360FEF76FFF0646194B1B6813F4807F7A
:10176000CED1FEF767FF801B0228F5D903208AE05F
:10177000104A136F43F001031367CFE70D4B1A6F45
:1017800042F004021A671A6F42F001021A67C5E7B5
:10179000FEF750FF0646074B1B6F13F0020F11D0E8
:1017A000FEF748FF801B41F288339842F3D90320AB
:1017B00069E000BF0038024000004742800E474207
:1017C00000700040E5B9A369002B5BD0304A9268F5
:1017D00002F00C02082A58D0022B17D02D4B002201
:1017E0001A60FEF727FF0446294B1B6813F0007FA1
:1017F00042D0FEF71FFF001B0228F5D9032042E06C
:10180000234A136C23F080531364DCE7214B00223E
:101810001A60FEF70FFF05461D4B1B6813F0007F93
:1018200006D0FEF707FF401B0228F5D903202AE067
:10183000E369226A1343626A43EA8213A26A520886
:10184000013A43EA0243E26A43EA0263104A536000
:10185000104B01221A60FEF7EDFE04460C4B1B688C
:1018600013F0007F06D1FEF7E5FE001B0228F5D934
:10187000032008E0002006E0002004E0012070477B
:10188000012000E0002002B070BD0120FBE700BF96
:101890000038024060004742324B9B6803F00C0363
:1018A000042B5CD0082B01D02F4870472DE9F04B5A
:1018B0002C4B5A6802F03F025B6813F4800F2BD068
:1018C000284B5B68C3F388131E4600275C01002584
:1018D000E41A65EB0705A90141EA9461A001001B28
:1018E00061EB0501CB0043EA5073C400A01943EB40
:1018F00007014B0243EAD053440220461946002315
:10190000FEF776FC174B5B68C3F3014301335B00C2
:10191000B0FBF3F0BDE8F08B124B5B68C3F38813A8
:101920001E4600275C010025E41A65EB0705A901A6
:1019300041EA9461A001001B61EB0501CB0043EA81
:101940005073C400A01943EB07018B0243EA905384
:101950008402204619460023FEF74AFCD2E70348DA
:10196000704700BF003802400024F40000127A00E3
:10197000002800F09D8070B504464F4B1B6803F0B3
:101980000F038B4209D2CBB24B4A1370136803F09A
:101990000F038B4201D0012070BD236813F0020FAA
:1019A00017D013F0040F04D0444A936843F4E05373
:1019B0009360236813F0080F04D0404A936843F4FF
:1019C000604393603D4A936823F0F003A0680343AB
:1019D00093600D46236813F0010F32D06368012B2A
:1019E00021D09A1E012A25D9344A126812F0020F1A
:1019F00060D032498A6822F0030213438B60FEF7FD
:101A000019FE06462D4B9B6803F00C036268B3EB8E
:101A1000820F16D0FEF70EFE801B41F288339842EB
:101A2000F0D90320B8E7254A126812F4003FE0D14C
:101A30000120B1E7214A126812F0007FD9D10120BC
:101A4000AAE71D4B1B6803F00F03AB4209D9EAB2AA
:101A5000194B1A701B6803F00F03AB4201D0012031
:101A60009AE7236813F0040F06D0144A936823F40E
:101A7000E053E1680B439360236813F0080F07D02D
:101A80000E4A936823F46043216943EAC1039360DB
:101A9000FFF702FF094B9B68C3F30313084AD35CAB
:101AA000D840084B18600020FEF77AFD002073E74D
:101AB0000120704701206FE7003C024000380240DF
:101AC000B43A000808000020014B1868704700BFB6
:101AD0000800002008B5FFF7F7FF044B9B68C3F32D
:101AE0008223034AD35CD84008BD00BF00380240BF
:101AF000C43A000808B5FFF7E7FF044B9B68C3F33F
:101B00004233034AD35CD84008BD00BF00380240CE
:101B1000C43A000870B4036A23F001030362036A45
:101B20004268846924F073040D6845EA040623F0D2
:101B300002048B6823430C4DA84202D00B4CA042F8
:101B40000BD123F00803CD682B4323F0040322F4C8
:101B500040724D6915438A692A43426086614A682A
:101B60004263036270BC7047000001400004014002
:101B700030B4036A23F480730362036A4268C46961
:101B800024F073040D682C4323F400738D6843EA3A
:101B900005230E4DA84203D005F58065A8420ED15D
:101BA00023F40063CD6843EA052323F4806322F421
:101BB00040524D6942EA05128D6942EA05124260BF
:101BC000C4614A68C263036230BC704700000140D0
:101BD00030B4036A23F480530362036A4468C26921
:101BE00022F4E6420D6842EA052223F400538D6890
:101BF00043EA0533094DA84203D005F58065A842A4
:101C000004D124F480444D6944EA85144460C261DF
:101C10004A680264036230BC704700BF00000140A4
:101C200003682E4A904212D0B0F1804F0FD0A2F537
:101C30007C4290420BD002F58062904207D002F5C0
:101C40008062904203D002F57842904203D123F0A3
:101C500070034A681343214A90422AD0B0F1804F62
:101C600027D0A2F57C42904223D002F580629042B8
:101C70001FD002F5806290421BD002F5784290425C
:101C800017D002F57052904213D002F58062904254
:101C90000FD002F5806290420BD0A2F598329042AC
:101CA00007D002F58062904203D002F58062904234
:101CB00003D123F44073CA68134303608B68C36283
:101CC0000B688362054B984203D003F5806398420A
:101CD00001D10B6903630123436170470000014098
:101CE000A8B110B5044690F839305BB1022384F8EE
:101CF0003930211D2068FFF793FF012384F8393024
:101D0000002010BD80F8383001F096F9EEE7012090
:101D10007047000030B4036A23F010030362036AC3
:101D20004468826922F4E6420D6842EA052223F003
:101D300020038D6843EA05130E4DA84203D005F534
:101D40008065A8420ED123F08003CD6843EA0513D5
:101D500023F0400324F440644D6944EA85048D690E
:101D600044EA8504446082614A688263036230BC4D
:101D7000704700BF0000014038B590F83830012BA3
:101D800066D00D460446012380F83830022380F8DF
:101D900039300C2A1AD8DFE802F00719191920196E
:101DA00019193419191947000068FFF7B3FE2268A2
:101DB000936943F0080393612268936923F0040355
:101DC00093612268936929690B439361012384F825
:101DD0003930002084F8380038BD0068FFF79AFFDA
:101DE0002268936943F4006393612268936923F442
:101DF0008063936122689369296943EA01239361AF
:101E0000E4E70068FFF7B4FE2268D36943F00803F3
:101E1000D3612268D36923F00403D3612268D369B4
:101E200029690B43D361D1E70068FFF7D1FE22682F
:101E3000D36943F40063D3612268D36923F48063D8
:101E4000D3612268D369296943EA0123D361BDE7DD
:101E50000220C1E710B4012303FA01F4036A23EA64
:101E600004030362036A8A40134303625DF8044B70
:101E70007047000010B5044601220068FFF7EAFF32
:101E80002368094A934203D002F58062934203D14A
:101E90005A6C42F400425A642268136843F001030A
:101EA0001360002010BD00BF0000014090F83830E2
:101EB000012B22D030B4012280F83820022380F890
:101EC00039300468636823F07003636004686368F2
:101ED0000D682B4363600468A36823F08003A3604C
:101EE0000468A36849680B43A36080F83920002385
:101EF00080F83830184630BC70470220704790F8A0
:101F00003830012B25D0012380F83830CB6823F4FA
:101F100040738A68134323F480634A68134323F4AD
:101F200000630A68134323F480530A69134323F4BC
:101F300000534A69134323F480438A69134323F40B
:101F40000043134302685364002380F83830184676
:101F50007047022070470268D36823F49073D360FF
:101F60000268536923F001035361202380F83A305B
:101F7000704790F83930DBB2212B2AD18368B3F552
:101F8000805F16D0036A5A1C02621A7803685A608E
:101F9000C38C013B9BB2C384EBB90268D36823F0C6
:101FA0008003D3600268D36843F04003D36000200D
:101FB0007047036A1B880268C3F308035360036910
:101FC0001BB9036A02330362E2E7036A0133036267
:101FD000DEE7022070470020704700002DE9F8433B
:101FE000044601680A6922F44052C36813430B6136
:101FF0000168CA6822F4164222F00C028368006964
:10200000034360690343E06903431343CB602168E2
:102010004A6922F44072A36913434B61E369B3F543
:10202000004F60D02368B84A934200F0148102F553
:102030008062934200F00F81FFF74CFD00EB8000BF
:1020400000EB80006568AD00B0FBF5F5AF4FA7FB76
:1020500005356D092E01FFF73DFD00EB800000EB1B
:1020600080006568AD00B0FBF5F9FFF733FD00EBCC
:10207000800000EB80006568AD00B0FBF5F5A7FBC4
:1020800005356D094FF0640808FB15952D013235B3
:10209000A7FB05356D0905F0F0053544FFF71AFD7E
:1020A00000EB800000EB80006668B600B0FBF6F63F
:1020B000FFF710FD00EB800000EB800063689B00E1
:1020C000B0FBF3F0A7FB0030400908FB10684FEAB3
:1020D000081808F13208A7FB0837C7F3431723682D
:1020E0002F449F600DE12368874A93425BD002F53D
:1020F0008062934257D0FFF7EDFC00EB800000EBCD
:10210000800065686D00B0FBF5F5804FA7FB0535D5
:102110006D092E01FFF7DEFC00EB800000EB800074
:1021200065686D00B0FBF5F9FFF7D4FC00EB8000AB
:1021300000EB800065686D00B0FBF5F5A7FB053589
:102140006D094FF0640808FB1595ED003235A7FBCB
:1021500005356D096D0005F4F8753544FFF7BAFCD7
:1021600000EB800000EB800066687600B0FBF6F6BE
:10217000FFF7B0FC00EB800000EB800063685B00C1
:10218000B0FBF3F3A7FB03235B0908FB13684FEADB
:10219000C80808F13208A7FB0837C7F342172368BD
:1021A0002F449F60ADE0FFF7A5FC00EB800000EB43
:1021B000800065686D00B0FBF5F5544FA7FB053551
:1021C0006D092E01FFF796FC00EB800000EB80000C
:1021D00065686D00B0FBF5F9FFF78CFC00EB800043
:1021E00000EB800065686D00B0FBF5F5A7FB0535D9
:1021F0006D094FF0640808FB1595ED003235A7FB1B
:1022000005356D096D0005F4F8753544FFF772FC6E
:1022100000EB800000EB800066687600B0FBF6F60D
:10222000FFF768FC00EB800000EB800063685B0058
:10223000B0FBF3F3A7FB03235B0908FB13684FEA2A
:10224000C80808F13208A7FB0837C7F3421723680C
:102250002F449F6055E0FFF74DFC00EB800000EB42
:1022600080006568AD00B0FBF5F5284FA7FB05358C
:102270006D092E01FFF73EFC00EB800000EB8000B3
:102280006568AD00B0FBF5F9FFF734FC00EB8000AA
:1022900000EB80006568AD00B0FBF5F5A7FB0535E8
:1022A0006D094FF0640808FB15952D013235A7FB29
:1022B00005356D0905F0F0053544FFF71BFC00EB13
:1022C000800000EB80006668B600B0FBF6F6FFF712
:1022D00011FC00EB800000EB800063689B00B0FB0A
:1022E000F3F0A7FB0030400908FB10684FEA08181C
:1022F00008F13208A7FB0837C7F3431723682F44B8
:102300009F60BDE8F88300BF001001401F85EB51BE
:1023100058B310B5044690F839300BB3242384F831
:1023200039302268D36823F40053D3602046FFF786
:1023300055FE2268136923F49043136122685369A0
:1023400023F02A0353612268D36843F40053D36017
:102350000020E063202384F8393084F83A3010BD3F
:1023600080F8383000F0CCFED8E70120704790F8B4
:102370003930DBB2202B16D1B9B1C2B190F8383068
:10238000012B16D001628284C2840023C363212200
:1023900080F8392080F838300168CA6842F080023D
:1023A000CA6018467047022070470120704701201C
:1023B000704702207047704708B50168CB6823F06A
:1023C0004003CB60202380F83930FFF7F4FF002072
:1023D00008BD704708B590F83A30DBB2222B40D1E7
:1023E0008368B3F5805F0ED0036903BB03685A6846
:1023F000836A591C81621A70C38D013B9BB2C385ED
:10240000F3B100202EE0826A036943B903685B6878
:10241000C3F308031380836A02338362ECE7036823
:102420005B68DBB21380836A01338362E4E703688D
:102430005B68826A511C816203F07F031370DBE7E3
:102440000268D36823F49073D3600268536923F061
:1024500001035361202380F83A30FFF7BAFF0020D0
:1024600000E0022008BD704710B5044602681368FA
:10247000D168526913F00F0005D113F0200F02D07C
:1024800011F0200F53D1002867D012F0010202D1C1
:1024900011F4907F61D013F0010F06D011F4807F0A
:1024A00003D0E06B40F00100E06313F0040F04D0B0
:1024B0001AB1E06B40F00200E06313F0020F04D0A9
:1024C0001AB1E06B40F00400E06313F0080F04D091
:1024D0001AB1E26B42F00802E263E26B002A48D0D4
:1024E00013F0200F02D011F0200F24D123685B6974
:1024F00003F04003E26B12F0080F00D13BB320461B
:10250000FFF729FD23685A6912F0400F1BD05A6962
:1025100022F040025A61636B8BB11A4A1A65606BF4
:10252000FEF71FF928B3606B036D984721E0204642
:10253000FFF750FF1DE02046FFF74CFFD6E720468F
:10254000FFF791FF15E02046FFF78DFF11E02046D1
:10255000FFF789FF0023E3630BE013F0800F02D045
:1025600011F0800F06D113F0400F02D011F0400F90
:1025700004D110BD2046FFF7FCFCFAE72046FFF728
:102580001BFFF6E78925000808B5806B0023C3858B
:10259000C384FFF768FF08BD2DE9F04F8DB000241C
:1025A00000946D4B1A6B42F004021A631A6B02F02E
:1025B00004020092009A01941A6B42F080021A639E
:1025C0001A6B02F080020192019A02941A6B42F097
:1025D00001021A631A6B02F001020292029A03943A
:1025E0001A6B42F010021A631A6B02F01002039287
:1025F000039A04941A6B42F002021A631A6B02F0F7
:1026000002020492049A05941A6B42F008021A63BB
:102610001A6B02F008020592059A06941A6B42F0B2
:1026200040021A631B6B03F040030693069B22468D
:102630004FF440414948FEF797F9DFF830A12246B0
:102640004FF481415046FEF78FF9454F2246402115
:102650003846FEF789F94FF4005BCDF81CB0414BCA
:1026600008930994DFF8089107A94846FEF78CF80B
:102670003223079302260896099403250A954FF002
:102680000B08CDF82C8007A94846FEF77DF8862375
:102690000793089609940A95CDF82C8007A932482B
:1026A000FEF772F84FF4404307934FF00109CDF85D
:1026B000209009940A9407A92848FEF765F8CDF8F8
:1026C0001CB0089609940A95CDF82C8007A95046AD
:1026D000FEF75AF84FF481430793CDF82090099400
:1026E0000A9407A95046FEF74FF840230793CDF808
:1026F000209009940A9407A93846FEF745F88023EC
:1027000007930894099407A93846FEF73DF84FF45B
:10271000E8530793089609940A950A230B9307A98F
:102720001148FEF731F84FF40073079308940994A9
:1027300007A90D48FEF728F84FF420530793089691
:1027400009940A95CDF82C8007A93846FEF71CF8A5
:102750000DB0BDE8F08F00BF00380240001002400D
:102760000018024000001110000002400004024066
:1027700000080240FEE7000008B50B480B4B036061
:102780004FF4E133436000238360C36003610C2294
:1027900042618361C361FFF7BBFD00B908BD4FF41F
:1027A000C5710348FFF7E6FF9C0000200048004089
:1027B000CC3A000800B591B03048314B03604FF47B
:1027C0007A734360002383605A22C26003614361CD
:1027D000FFF786FA002838D100230E930F930EA935
:1027E0002648FFF763FB002834D1602307932D238D
:1027F0000893002209920A920B924FF480730C9373
:102800000D9207A91D48FFF7B7FA40BB1E23089396
:1028100000230C93042207A91848FFF7ADFA18BB50
:102820000023009301930293039304934FF4005207
:102830000592069369461148FFF761FBC8B90F4836
:1028400000F022FC11B05DF804FB40F225110D48A8
:10285000FFF790FF4FF496710A48FFF78BFF4FF494
:102860009C710848FFF786FF40F23F110548FFF7CB
:1028700081FF40F24B110348FFF77CFF300100203D
:1028800000000140CC3A000808B50C480C4B03602E
:102890000C4B436000238360C3604FF480420261AD
:1028A00043618361C3610362FEF760FA00B908BD4A
:1028B0004FF488710448FFF75DFF00BFDC00002083
:1028C00000540040A0860100CC3A000800B58BB04F
:1028D0001F484FF080430360002343608360C36060
:1028E0000361FFF7FDF9F8B900230893099308A9DC
:1028F0001748FFF7DBFAE0B9602301930023029346
:1029000003930593082201A91148FFF735FAA8B9E6
:102910000C2201A90E48FFF72FFAA0B90C4800F0CD
:10292000B3FB0BB05DF804FB4FF4B0710948FFF73F
:1029300021FF40F267110748FFF71CFF4FF4B87101
:102940000448FFF717FF40F275110248FFF712FF26
:102950006C010020CC3A000800B595B0002201922D
:102960002C4B196C41F0805119641B6C03F080539F
:102970000193019B0292284B196841F44041196070
:102980001B6803F440430293029B02230893012136
:102990000B9110210C910E930F9208221092B422E9
:1029A000119212930723139308A8FEF7A9FD28BBE1
:1029B000FEF766FD30BB0F2303930223049300232D
:1029C00005934FF4A05306930793052103A8FEF740
:1029D000CFFFD8B9FFF778F8104BA3FB0030800980
:1029E000FDF794FE0420FDF7A7FE002211464FF0EC
:1029F000FF30FDF74BFE15B05DF804FBDD21084804
:102A0000FFF7B8FEE4210648FFF7B4FEF2210448C0
:102A1000FFF7B0FE0038024000700040D34D621056
:102A2000CC3A00082DE9F041A6B05B4B22AC0FCBAD
:102A300007C424F8023B1B0C23701DAC574D0FCD6F
:102A40000FC42B6823706422002104A800F00CFC42
:102A5000FDF7CAFDFFF780FFFFF79EFDFFF78CFE35
:102A6000FFF7A8FEFFF710FFFFF730FF4C4C0021E7
:102A70002046FFF7FFF904212046FFF7FBF9494CF8
:102A800008212046FFF7F6F90C212046FFF7F2F95E
:102A9000454C00224FF480412046FDF765FF00229F
:102AA0004FF400412046FDF75FFF12E011221DA9FF
:102AB0003E48FFF75CFC1FE03B4C00224FF4804196
:102AC0002046FDF751FF00224FF400412046FDF75C
:102AD0004BFF0022009213463549364800F032F988
:102AE00004464FF4FA70FDF7ABFD002CDED10F2247
:102AF00022A92E48FFF73BFC4FF4FA70FDF7A0FD2A
:102B00002B4C2C4D2146284600F0E4F9214628465E
:102B100000F0A8F9B4F91260B4F91470B4F9168091
:102B20002146284600F067F9B4F90C30B4F90E508C
:102B3000B4F91020039202950193CDF800803B4632
:102B400032461D4904A800F097FB04A8FDF7D0FC0D
:102B500082B204A91548FFF70AFC184A82FB053225
:102B6000EB17C3EBA213DBB20D4A126853630D4A95
:102B70001268D363002D9FDC002DAADA0A4C0122D3
:102B80004FF480412046FDF7EFFE01224FF4004153
:102B90002046FDF7E9FE9CE7183B0008283B0008AB
:102BA000300100206C010020001002409C00002039
:102BB000A8010020DC000020DC3A0008D34D6210A0
:102BC00030B585B005460C7819238DF80C308DF89A
:102BD0000D204FF47A730093022303AA214628465E
:102BE000FEF752F90028F4D105B030BD2DE9F041CF
:102BF00084B005460F46164691F800801C238DF8D8
:102C00000E301FFA88F44FF47A73009301230DF10C
:102C10000E0221462846FEF737F90028F1D14FF47D
:102C20007A73009301230DF10F0221462846FEF727
:102C3000EDF90028F3D19DF80F3023F018035BB2B3
:102C400043EAC6038DF80F304FF47A7300930123E3
:102C50000DF10F0221462846FEF716F90028F3D1A0
:102C6000032E06D8DFE806F002090D114FF062537B
:102C7000BB60002004B0BDE8F0814FF06453BB603E
:102C8000F7E74FF06653BB60F3E74FF06853BB6064
:102C9000EFE700002DE9F04184B005460F461646E7
:102CA00091F800801B238DF80E301FFA88F44FF442
:102CB0007A73009301230DF10E0221462846FEF798
:102CC000E3F80028F1D14FF47A73009301230DF15A
:102CD0000F0221462846FEF799F90028F3D19DF806
:102CE0000F3023F018035BB243EAC6038DF80F30B0
:102CF0004FF47A73009301230DF10F022146284609
:102D0000FEF7C2F80028F3D1032E05D8DFE806F05D
:102D100002080B0E074B7B60002004B0BDE8F08179
:102D2000054B7B60F8E7054B7B60F5E7044B7B6068
:102D3000F2E700BF2D23FA3B2D237A3C90C1F93CEA
:102D400090C1793DF0B585B006460D461F46752306
:102D50008DF80F3042F0D0020A7094B2052302229F
:102D60002146FEF7C7FA10B1012005B0F0BD4FF4BF
:102D70007A73009301230DF10F0221463046FEF7CE
:102D800083F808B10120F0E74FF47A730093012330
:102D90000DF10E0221463046FEF738F948BB9DF88A
:102DA0000E30682B01D00320DFE76B238DF80C3049
:102DB00000238DF80D304FF47A730093022303AA99
:102DC00021463046FEF760F808B10120CDE7072222
:102DD00029463046FFF7F4FE3A4629463046FFF7CB
:102DE00005FF9DF8282029463046FFF753FF0020B5
:102DF000BBE70120B9E7F0B587B005460F463B2396
:102E00008DF80F300E78B4B24FF47A73009301232B
:102E10000DF10F0221462846FEF736F80028F2D1C0
:102E20004FF47A730093062304AA21462846FEF73E
:102E3000EDF80028F4D19DF810209DF8113043EAF8
:102E40000223BB819DF812209DF8133043EA022330
:102E5000FB819DF814209DF8153043EA02233B8244
:102E600007B0F0BDF0B587B005460F4643238DF897
:102E70000F300E78B4B24FF47A73009301230DF142
:102E80000F0221462846FDF7FFFF0028F2D14FF43C
:102E90007A730093062304AA21462846FEF7B6F863
:102EA0000028F4D19DF810209DF8113043EA022348
:102EB0007B829DF812209DF8133043EA0223BB82E7
:102EC0009DF814209DF8153043EA0223FB8207B0D9
:102ED000F0BD0000F0B585B005460E4641238DF8E3
:102EE0000B300F78BCB24FF47A73009301230DF1CD
:102EF0000B0221462846FDF7C7FF0028F2D14FF408
:102F00007A730093022303AA21462846FEF77EF82F
:102F10000028F4D19DF80C301B021BB29DF80D2047
:102F2000134307EE903AF8EEE77ADFED066A87EE94
:102F3000A67ADFED057A77EE277AC6ED067A05B038
:102F4000F0BD00BF0000AA43B81E124210B582B007
:102F500000240094214B5A6C42F480425A645A6C0B
:102F600002F480420092009A01941A6C42F080525E
:102F70001A641B6C03F080530193019B0320FDF73F
:102F800073FB224621466FF00B00FDF77FFB2246C4
:102F900021466FF00A00FDF779FB224621466FF0CB
:102FA0000900FDF773FB224621466FF00400FDF790
:102FB0006DFB224621466FF00300FDF767FB2246BA
:102FC00021466FF00100FDF761FB224621464FF0DC
:102FD000FF30FDF75BFB02B010BD00BF00380240C0
:102FE0000268124B9A4200D0704700B587B04FF488
:102FF0001073019312230293012303930323049379
:10300000042305930DEB03010948FDF7BDFB0023E5
:103010000093084B1A6C42F400121A641B6C03F400
:1030200000130093009B07B05DF804FB00540040C0
:10303000000402400038024082B00368104A934204
:1030400004D0B3F1804F0ED002B07047002300933C
:103050000C4B5A6C42F001025A645B6C03F00103A2
:103060000093009BF0E700230193064B1A6C42F09B
:1030700001021A641B6C03F001030193019BE3E757
:10308000000001400038024070B586B00368184A5D
:10309000934204D0B3F1804F10D006B070BD4FF40E
:1030A00020630193022302930022039204930123DD
:1030B000059301A90F48FDF767FBEEE7082301938D
:1030C000022602960024039404940125059501A983
:1030D0000948FDF759FB4FF480630193029603946E
:1030E0000494059501A90548FDF74EFBD5E700BFFF
:1030F00000000140001002400000024000040240B5
:103100000268164B9A4200D0704710B586B0002472
:10311000009403F5F8331A6C42F480221A641B6C95
:1031200003F480230093009B4FF440730193022328
:10313000029301230393032304930723059301A917
:103140000748FDF721FB224621462720FDF79EFA7E
:103150002720FDF7CFFA06B010BD00BF00480040A1
:10316000000C024008B5FDF759FAFDF7F6FA08BD64
:1031700008B50248FFF778F908BD00BF9C000020A1
:103180000F49D1F8883043F47003C1F888300D4BF3
:103190001A6842F001021A60002098601A6822F052
:1031A000847222F480321A60074A5A601A6822F444
:1031B00080221A60D8604FF000638B60704700BFB8
:1031C00000ED00E00038024010300024DFF834D079
:1031D000002103E00C4B5B58435004310B480C4B6F
:1031E00042189A42F6D30B4A02E0002342F8043B0D
:1031F000094B9A42F9D3FFF7C3FF00F011F8FFF72C
:1032000011FC704700000320803B000800000020F4
:103210007000002070000020C8010020FEE70000C0
:1032200070B50D4E0D4CA41BA4100025A54209D16C
:103230000B4E0C4C00F032FCA41BA4100025A54240
:1032400005D170BD56F8253098470135EEE756F8A0
:10325000253098470135F2E7783B0008783B0008B5
:10326000783B00087C3B000802440346934200D1AF
:10327000704703F8011BF9E70EB400B59CB01DAB15
:10328000029006906FF000410948079104910949A6
:1032900053F8042B05910068019302A900F066F829
:1032A000029B00221A701CB05DF804EB03B070475B
:1032B0000C0000200802FFFF2DE9F0478E689E42B7
:1032C00082460C469046994637D88A8912F4906F08
:1032D00031D0256809696F1A6569022305EB450538
:1032E00095FBF3F509F101033B449D4238BF1D46B0
:1032F000530530D5294600F029FB064650B90C236A
:10330000CAF80030A38943F04003A3814FF0FF3097
:10331000BDE8F0873A46216900F0A6FAA38923F4B4
:10332000906343F08003A381266165613E44ED1BF9
:103330002660A5604E464E4500D94E46324641466F
:10334000206800F09CFAA3689B1BA36023681E44BE
:1033500026600020DCE72A4600F052FB06460028E3
:10336000E2D12169504600F0A3FAC8E72DE9F04FF9
:103370009DB0804603938B891D060C4616460FD5DB
:103380000B696BB9402100F0E1FA2060206128B997
:103390000C23C8F800304FF0FF30C7E040236361D2
:1033A0000023099320238DF8293030238DF82A300B
:1033B0004FF0010B37463D4615F8013B0BB1252B6D
:1033C0003ED1B7EB060A0BD0534632462146404663
:1033D000FFF772FF013000F0A480099B534409936A
:1033E0003B78002B00F09D8000234FF0FF32CDE9A9
:1033F0000523049307938DF853301A932F46052223
:1034000017F8011B4F48FDF77BF8049BD0B9D9068C
:1034100044BF20228DF853201A0744BF2B228DF879
:1034200053202A782A2A15D0079A2F4600200A25E9
:10343000394611F8013B303B092B4DD9B8B10FE0AB
:103440002F46B8E73F4A801A0BFA00F01843049061
:103450003D46D3E7039A111D12680391002A01DB50
:10346000079204E0524243F00203079204933B7830
:103470002E2B0CD17B782A2B33D1039B1A1D1B6872
:103480000392002BB8BF4FF0FF33023705932E4D48
:10349000397803222846FDF733F838B14023401B22
:1034A00003FA00F0049B034301370493397827485B
:1034B0008DF8281006227E1CFDF722F8002838D04F
:1034C000234B13BB039B073323F0070308330393FA
:1034D000099B4B4409936DE705FB023201200F461F
:1034E000A6E700230137059319460A25384610F848
:1034F000012B303A092A03D9002BC8D00591C6E721
:1035000005FB012101230746F0E703AB00932246A8
:10351000104B04A94046AFF30080B0F1FF3F814655
:10352000D6D1A3895B063FF536AF09981DB0BDE83B
:10353000F08F03AB00932246064B04A9404600F0EF
:1035400081F8EAE73C3B0008423B0008463B0008A4
:1035500000000000B93200082DE9F04791461F46EF
:103560008A680B69DDF820809342B8BF1346C9F81A
:10357000003091F8432006460C4612B10133C9F8D9
:1035800000302368990642BFD9F800300233C9F8E9
:103590000030256815F0060507D104F1190AE36823
:1035A000D9F800209B1AAB4228DC94F843302268FB
:1035B000003318BF012392062DD404F1430239468B
:1035C0003046C047013020D02368E568D9F8002094
:1035D00003F00603042B08BFAD1AA36822690CBFD1
:1035E00025EAE57500259342C4BF9B1AED184FF0FC
:1035F00000091A344D451AD1002008E00123524633
:1036000039463046C047013003D14FF0FF30BDE8A6
:10361000F0870135C3E7E1185A1C302081F84300D8
:10362000224494F8451082F843100233C5E7012381
:10363000224639463046C0470130E6D009F101093B
:10364000D8E700002DE9F04301F1430C0C46097E58
:1036500085B06E291746064698460C9A00F0B3804E
:1036600022D8632936D00AD8002900F0B980582919
:1036700000F0838004F1420584F8421032E06429AE
:1036800001D06929F6D120681368050603F1040109
:103690002AD51B681160002B03DA2D225B4284F8C7
:1036A00043206F480A2239E0732900F09D8008D832
:1036B0006F2920D07029DDD1236843F020032360D7
:1036C00003E0752917D07829D4D1782384F84530C0
:1036D000644855E01368191D1B68116004F1420528
:1036E00084F8423001238CE01B68116010F0400F19
:1036F00018BF1BB2CFE713682568181D1060280695
:1037000001D51B6802E06806FBD51B8854486F2969
:1037100014BF0A220822002184F843106568A560BE
:10372000002DC0F29580216821F004012160002B5A
:103730003DD1002D40F08E806546082A0BD12368CC
:10374000DB0708D5236962689A42DEBF302305F89B
:10375000013C05F1FF35ACEB05032361CDF800809A
:103760003B4603AA21463046FFF7F6FE01304DD115
:103770004FF0FF3005B0BDE8F083394884F84510BC
:10378000136821681D1D1B6815600A060BD5CA0742
:1037900044BF41F0200121601BB9226822F02002C1
:1037A00022601022B7E74D0648BF9BB2EFE765469F
:1037B000B3FBF2F102FB1133C35C05F8013D0B468C
:1037C0000029F5D1B9E7136825686169181D1060F3
:1037D00028061B6801D5196002E06A06FBD519802E
:1037E000002323616546B9E71368191D11601D6840
:1037F000626800212846FCF783FE08B1401B606028
:1038000063682361002384F84330A7E723692A46CD
:1038100039463046C0470130AAD023689B0713D4ED
:10382000E068039B9842B8BF1846A3E701234A46C5
:1038300039463046C04701309AD00135E368039AD3
:103840009B1AAB42F2DCEBE7002504F11909F5E71E
:10385000002BACD1037884F8423004F142056CE7C8
:103860004D3B00085E3B000810B5431E0A449142E0
:1038700000D110BD11F8014B03F8014FF7E7884262
:1038800010B501EB020307D8421E99420AD011F885
:10389000014B02F8014FF8E78342F5D98118D21A9B
:1038A000D34200D110BD13F8014D01F8014DF7E7E7
:1038B00038B50546002945D051F8043C0C1F002BB3
:1038C000B8BFE41800F0D2F81F4A1368104633B9A5
:1038D000636014602846BDE8384000F0C8B8A342D1
:1038E0000CD921686218934204BF1A685B68636050
:1038F00004BF521822600460ECE713465A680AB10C
:10390000A242FAD919685818A0420BD12068014484
:10391000581882421960DDD1106852685A6001441B
:103920001960D7E702D90C232B60D3E72068211850
:103930008A4204BF11685268626004BF091821609E
:103940005C60C7E738BD00BF8C00002070B5CD1C9F
:1039500025F0030508350C2D38BF0C25002D064633
:1039600001DBA94203D90C233360002070BD00F0B5
:103970007DF8214A1468214691B9204C23681BB96F
:10398000304600F063F820602946304600F05EF8CB
:10399000431C24D10C233360304600F068F8E4E780
:1039A0000B685B1B18D40B2B0FD90B60CD50CC18B8
:1039B000304600F05CF804F10B00231D20F00700F6
:1039C000C31AD3D05A42E250D0E78C424B6816BF9C
:1039D000636013600C46EBE70C464968CCE7C41CF7
:1039E00024F00304A04205D0211A304600F02EF83E
:1039F0000130CFD02560DBE78C0000209000002054
:103A0000F8B5074614460E4621B91146BDE8F84000
:103A1000FFF79CBF22B9FFF74BFF25462846F8BDAC
:103A200000F026F8A0420FD221463846FFF78EFF5D
:103A300005460028F2D031462246FFF715FF3146F1
:103A40003846FFF735FFE9E73546E7E738B5064C76
:103A5000002305460846236000F012F8431C02D1FB
:103A6000236803B12B6038BDC40100207047704744
:103A700051F8043C181F002BBCBF0B58C0187047EE
:103A8000044A05491368002B08BF0B461844106010
:103A90001846704794000020C8010020F8B500BF08
:103AA000F8BC08BC9E467047F8B500BFF8BC08BC1F
:043AB0009E46704777
:103AB40000000000000000000102030406070809DA
:103AC40000000000010203042E2E2F5372632F6D99
:103AD40061696E2E63000000675F783A25303664B2
:103AE4002C20675F793A253036642C20675F7A3A58
:103AF400253036642C20615F783A253036642C20DA
:103B0400615F793A253036642C20615F7A3A25303A
:103B1400366400004D505520574F524B2046494EB5
:103B2400450A00004D5055204E4F5420574F524BDC
:103B3400494E470A00000000232D302B2000686CFA
:103B44004C006566674546470030313233343536BC
:103B540037383941424344454600303132333435F5
:0C3B640036373839616263646566000022
:083B7000B0C6FF7F0100000058
:043B7800D50100086B
:043B7C00B10100088B
:103B800001000000100000000024F40010000020DC
:103B90000000000000000000000000000000000025
:103BA0000000000000000000000000000000000015
:103BB0000000000000000000000000000000000005
:103BC00000000000000000000000000000000000F5
:103BD00000000000000000000000000000000000E5
:103BE00000000000000000000000000000000000D5
:04000005080031CDF1
:00000001FF
